{
  "_format": "hh-sol-artifact-1",
  "contractName": "CrowdFunding",
  "sourceName": "contracts/CrowdFunding.sol",
  "abi": [
    {
      "anonymous": false,
      "inputs": [
        {
          "indexed": true,
          "internalType": "uint256",
          "name": "id",
          "type": "uint256"
        }
      ],
      "name": "CampaignApproved",
      "type": "event"
    },
    {
      "anonymous": false,
      "inputs": [
        {
          "indexed": true,
          "internalType": "uint256",
          "name": "id",
          "type": "uint256"
        }
      ],
      "name": "CampaignCompleted",
      "type": "event"
    },
    {
      "anonymous": false,
      "inputs": [
        {
          "indexed": true,
          "internalType": "uint256",
          "name": "id",
          "type": "uint256"
        }
      ],
      "name": "CampaignCreated",
      "type": "event"
    },
    {
      "anonymous": false,
      "inputs": [
        {
          "indexed": true,
          "internalType": "uint256",
          "name": "id",
          "type": "uint256"
        }
      ],
      "name": "CampaignRejected",
      "type": "event"
    },
    {
      "anonymous": false,
      "inputs": [
        {
          "indexed": false,
          "internalType": "uint8",
          "name": "version",
          "type": "uint8"
        }
      ],
      "name": "Initialized",
      "type": "event"
    },
    {
      "anonymous": false,
      "inputs": [
        {
          "indexed": true,
          "internalType": "address",
          "name": "previousOwner",
          "type": "address"
        },
        {
          "indexed": true,
          "internalType": "address",
          "name": "newOwner",
          "type": "address"
        }
      ],
      "name": "OwnershipTransferred",
      "type": "event"
    },
    {
      "anonymous": false,
      "inputs": [
        {
          "indexed": true,
          "internalType": "uint256",
          "name": "amount",
          "type": "uint256"
        }
      ],
      "name": "withdrawalComplete",
      "type": "event"
    },
    {
      "inputs": [
        {
          "components": [
            {
              "internalType": "string",
              "name": "_name",
              "type": "string"
            },
            {
              "internalType": "string",
              "name": "_slug",
              "type": "string"
            },
            {
              "internalType": "string",
              "name": "_description",
              "type": "string"
            },
            {
              "internalType": "uint256",
              "name": "_categoryId",
              "type": "uint256"
            },
            {
              "internalType": "string",
              "name": "_imageHash",
              "type": "string"
            },
            {
              "internalType": "uint256",
              "name": "_goalAmount",
              "type": "uint256"
            },
            {
              "internalType": "uint256",
              "name": "_deadline",
              "type": "uint256"
            },
            {
              "components": [
                {
                  "internalType": "string",
                  "name": "ipfsHash",
                  "type": "string"
                }
              ],
              "internalType": "struct CrowdFunding.File[]",
              "name": "_files",
              "type": "tuple[]"
            }
          ],
          "internalType": "struct CrowdFunding.AddCampaignPayload",
          "name": "data",
          "type": "tuple"
        },
        {
          "internalType": "string",
          "name": "_slug",
          "type": "string"
        }
      ],
      "name": "addCampaign",
      "outputs": [
        {
          "internalType": "uint256",
          "name": "",
          "type": "uint256"
        }
      ],
      "stateMutability": "payable",
      "type": "function"
    },
    {
      "inputs": [
        {
          "internalType": "uint256",
          "name": "_id",
          "type": "uint256"
        }
      ],
      "name": "approveCampaign",
      "outputs": [],
      "stateMutability": "nonpayable",
      "type": "function"
    },
    {
      "inputs": [
        {
          "internalType": "uint256",
          "name": "_id",
          "type": "uint256"
        }
      ],
      "name": "completeCampaign",
      "outputs": [],
      "stateMutability": "nonpayable",
      "type": "function"
    },
    {
      "inputs": [
        {
          "internalType": "uint256",
          "name": "_id",
          "type": "uint256"
        }
      ],
      "name": "contribute",
      "outputs": [],
      "stateMutability": "payable",
      "type": "function"
    },
    {
      "inputs": [
        {
          "internalType": "string",
          "name": "_name",
          "type": "string"
        }
      ],
      "name": "createCategory",
      "outputs": [],
      "stateMutability": "nonpayable",
      "type": "function"
    },
    {
      "inputs": [
        {
          "internalType": "string",
          "name": "_name",
          "type": "string"
        },
        {
          "internalType": "string",
          "name": "_email",
          "type": "string"
        }
      ],
      "name": "createUser",
      "outputs": [
        {
          "internalType": "uint256",
          "name": "",
          "type": "uint256"
        }
      ],
      "stateMutability": "nonpayable",
      "type": "function"
    },
    {
      "inputs": [
        {
          "internalType": "uint256",
          "name": "_id",
          "type": "uint256"
        }
      ],
      "name": "deleteCategory",
      "outputs": [],
      "stateMutability": "nonpayable",
      "type": "function"
    },
    {
      "inputs": [],
      "name": "getAllCampaigns",
      "outputs": [
        {
          "components": [
            {
              "internalType": "uint256",
              "name": "id",
              "type": "uint256"
            },
            {
              "internalType": "string",
              "name": "name",
              "type": "string"
            },
            {
              "internalType": "string",
              "name": "slug",
              "type": "string"
            },
            {
              "internalType": "string",
              "name": "description",
              "type": "string"
            },
            {
              "internalType": "string",
              "name": "imageHash",
              "type": "string"
            },
            {
              "internalType": "uint256",
              "name": "goalAmount",
              "type": "uint256"
            },
            {
              "internalType": "uint256",
              "name": "currentBalance",
              "type": "uint256"
            },
            {
              "internalType": "uint256",
              "name": "deadline",
              "type": "uint256"
            },
            {
              "internalType": "address payable",
              "name": "creator",
              "type": "address"
            },
            {
              "internalType": "enum CrowdFunding.CampaignStatus",
              "name": "campaignStatus",
              "type": "uint8"
            },
            {
              "internalType": "enum CrowdFunding.CampaignApprovalStatus",
              "name": "campaignApprovalStatus",
              "type": "uint8"
            },
            {
              "internalType": "uint256",
              "name": "categoryId",
              "type": "uint256"
            },
            {
              "internalType": "bool",
              "name": "status",
              "type": "bool"
            },
            {
              "internalType": "uint256",
              "name": "timestamp",
              "type": "uint256"
            }
          ],
          "internalType": "struct CrowdFunding.Campaign[]",
          "name": "",
          "type": "tuple[]"
        }
      ],
      "stateMutability": "view",
      "type": "function"
    },
    {
      "inputs": [
        {
          "internalType": "uint256",
          "name": "_id",
          "type": "uint256"
        }
      ],
      "name": "getCampaignById",
      "outputs": [
        {
          "components": [
            {
              "internalType": "uint256",
              "name": "id",
              "type": "uint256"
            },
            {
              "internalType": "string",
              "name": "name",
              "type": "string"
            },
            {
              "internalType": "string",
              "name": "slug",
              "type": "string"
            },
            {
              "internalType": "string",
              "name": "description",
              "type": "string"
            },
            {
              "internalType": "string",
              "name": "imageHash",
              "type": "string"
            },
            {
              "internalType": "uint256",
              "name": "goalAmount",
              "type": "uint256"
            },
            {
              "internalType": "uint256",
              "name": "currentBalance",
              "type": "uint256"
            },
            {
              "internalType": "uint256",
              "name": "deadline",
              "type": "uint256"
            },
            {
              "internalType": "address payable",
              "name": "creator",
              "type": "address"
            },
            {
              "internalType": "enum CrowdFunding.CampaignStatus",
              "name": "campaignStatus",
              "type": "uint8"
            },
            {
              "internalType": "enum CrowdFunding.CampaignApprovalStatus",
              "name": "campaignApprovalStatus",
              "type": "uint8"
            },
            {
              "internalType": "uint256",
              "name": "categoryId",
              "type": "uint256"
            },
            {
              "internalType": "bool",
              "name": "status",
              "type": "bool"
            },
            {
              "internalType": "uint256",
              "name": "timestamp",
              "type": "uint256"
            }
          ],
          "internalType": "struct CrowdFunding.Campaign",
          "name": "",
          "type": "tuple"
        }
      ],
      "stateMutability": "view",
      "type": "function"
    },
    {
      "inputs": [
        {
          "internalType": "string",
          "name": "_slug",
          "type": "string"
        }
      ],
      "name": "getCampaignBySlug",
      "outputs": [
        {
          "components": [
            {
              "internalType": "uint256",
              "name": "id",
              "type": "uint256"
            },
            {
              "internalType": "string",
              "name": "name",
              "type": "string"
            },
            {
              "internalType": "string",
              "name": "slug",
              "type": "string"
            },
            {
              "internalType": "string",
              "name": "description",
              "type": "string"
            },
            {
              "internalType": "string",
              "name": "imageHash",
              "type": "string"
            },
            {
              "internalType": "uint256",
              "name": "goalAmount",
              "type": "uint256"
            },
            {
              "internalType": "uint256",
              "name": "currentBalance",
              "type": "uint256"
            },
            {
              "internalType": "uint256",
              "name": "deadline",
              "type": "uint256"
            },
            {
              "internalType": "address payable",
              "name": "creator",
              "type": "address"
            },
            {
              "internalType": "enum CrowdFunding.CampaignStatus",
              "name": "campaignStatus",
              "type": "uint8"
            },
            {
              "internalType": "enum CrowdFunding.CampaignApprovalStatus",
              "name": "campaignApprovalStatus",
              "type": "uint8"
            },
            {
              "internalType": "uint256",
              "name": "categoryId",
              "type": "uint256"
            },
            {
              "internalType": "bool",
              "name": "status",
              "type": "bool"
            },
            {
              "internalType": "uint256",
              "name": "timestamp",
              "type": "uint256"
            }
          ],
          "internalType": "struct CrowdFunding.Campaign",
          "name": "",
          "type": "tuple"
        }
      ],
      "stateMutability": "view",
      "type": "function"
    },
    {
      "inputs": [
        {
          "internalType": "uint256",
          "name": "_id",
          "type": "uint256"
        }
      ],
      "name": "getCampaignContributions",
      "outputs": [
        {
          "components": [
            {
              "internalType": "address payable",
              "name": "contributor",
              "type": "address"
            },
            {
              "internalType": "uint256",
              "name": "amount",
              "type": "uint256"
            }
          ],
          "internalType": "struct CrowdFunding.Contribution[]",
          "name": "",
          "type": "tuple[]"
        }
      ],
      "stateMutability": "view",
      "type": "function"
    },
    {
      "inputs": [],
      "name": "getCategories",
      "outputs": [
        {
          "components": [
            {
              "internalType": "uint256",
              "name": "id",
              "type": "uint256"
            },
            {
              "internalType": "string",
              "name": "name",
              "type": "string"
            },
            {
              "internalType": "bool",
              "name": "status",
              "type": "bool"
            },
            {
              "internalType": "uint256",
              "name": "timestamp",
              "type": "uint256"
            }
          ],
          "internalType": "struct CrowdFunding.Category[]",
          "name": "",
          "type": "tuple[]"
        }
      ],
      "stateMutability": "view",
      "type": "function"
    },
    {
      "inputs": [],
      "name": "getContactEmail",
      "outputs": [
        {
          "internalType": "string",
          "name": "",
          "type": "string"
        }
      ],
      "stateMutability": "pure",
      "type": "function"
    },
    {
      "inputs": [],
      "name": "getCurrentUser",
      "outputs": [
        {
          "components": [
            {
              "internalType": "uint256",
              "name": "id",
              "type": "uint256"
            },
            {
              "internalType": "string",
              "name": "name",
              "type": "string"
            },
            {
              "internalType": "string",
              "name": "email",
              "type": "string"
            },
            {
              "internalType": "address",
              "name": "key",
              "type": "address"
            },
            {
              "internalType": "enum CrowdFunding.UserRole",
              "name": "role",
              "type": "uint8"
            },
            {
              "internalType": "bool",
              "name": "status",
              "type": "bool"
            },
            {
              "internalType": "uint256",
              "name": "timestamp",
              "type": "uint256"
            }
          ],
          "internalType": "struct CrowdFunding.User",
          "name": "",
          "type": "tuple"
        }
      ],
      "stateMutability": "view",
      "type": "function"
    },
    {
      "inputs": [],
      "name": "getUserContributions",
      "outputs": [
        {
          "components": [
            {
              "internalType": "uint256",
              "name": "campaignId",
              "type": "uint256"
            },
            {
              "internalType": "uint256",
              "name": "amount",
              "type": "uint256"
            },
            {
              "internalType": "uint256",
              "name": "timestamp",
              "type": "uint256"
            }
          ],
          "internalType": "struct CrowdFunding.UserContribution[]",
          "name": "",
          "type": "tuple[]"
        }
      ],
      "stateMutability": "view",
      "type": "function"
    },
    {
      "inputs": [
        {
          "internalType": "address",
          "name": "_address",
          "type": "address"
        }
      ],
      "name": "getUserDetails",
      "outputs": [
        {
          "components": [
            {
              "internalType": "uint256",
              "name": "id",
              "type": "uint256"
            },
            {
              "internalType": "string",
              "name": "name",
              "type": "string"
            },
            {
              "internalType": "string",
              "name": "email",
              "type": "string"
            },
            {
              "internalType": "address",
              "name": "key",
              "type": "address"
            },
            {
              "internalType": "enum CrowdFunding.UserRole",
              "name": "role",
              "type": "uint8"
            },
            {
              "internalType": "bool",
              "name": "status",
              "type": "bool"
            },
            {
              "internalType": "uint256",
              "name": "timestamp",
              "type": "uint256"
            }
          ],
          "internalType": "struct CrowdFunding.User",
          "name": "",
          "type": "tuple"
        }
      ],
      "stateMutability": "view",
      "type": "function"
    },
    {
      "inputs": [],
      "name": "getVerificationAmount",
      "outputs": [
        {
          "internalType": "uint256",
          "name": "",
          "type": "uint256"
        }
      ],
      "stateMutability": "pure",
      "type": "function"
    },
    {
      "inputs": [],
      "name": "getWithdrawableBalance",
      "outputs": [
        {
          "internalType": "uint256",
          "name": "",
          "type": "uint256"
        }
      ],
      "stateMutability": "view",
      "type": "function"
    },
    {
      "inputs": [],
      "name": "initialize",
      "outputs": [],
      "stateMutability": "nonpayable",
      "type": "function"
    },
    {
      "inputs": [],
      "name": "owner",
      "outputs": [
        {
          "internalType": "address",
          "name": "",
          "type": "address"
        }
      ],
      "stateMutability": "view",
      "type": "function"
    },
    {
      "inputs": [
        {
          "internalType": "uint256",
          "name": "_id",
          "type": "uint256"
        }
      ],
      "name": "rejectCampaign",
      "outputs": [],
      "stateMutability": "nonpayable",
      "type": "function"
    },
    {
      "inputs": [],
      "name": "renounceOwnership",
      "outputs": [],
      "stateMutability": "nonpayable",
      "type": "function"
    },
    {
      "inputs": [
        {
          "internalType": "address",
          "name": "newOwner",
          "type": "address"
        }
      ],
      "name": "transferOwnership",
      "outputs": [],
      "stateMutability": "nonpayable",
      "type": "function"
    },
    {
      "inputs": [],
      "name": "withdraw",
      "outputs": [],
      "stateMutability": "nonpayable",
      "type": "function"
    }
  ],
  "bytecode": "0x608060405234801561001057600080fd5b50615ea180620000216000396000f3fe60806040526004361061014b5760003560e01c80638d75747a116100b6578063ceca737f1161006f578063ceca737f14610442578063d3b0c32c1461046b578063dc298682146104a8578063e6ffcaa1146104d1578063ee4e1b531461050e578063f2fde38b146105375761014b565b80638d75747a1461032d5780638da5cb5b1461036a5780639553f18014610395578063be788e70146103be578063c1cbbca7146103e9578063cc3d967b146104055761014b565b80634db0412c116101085780634db0412c1461023c5780635220041514610267578063715018a6146102975780638129fc1c146102ae57806386cdf604146102c557806387b162b5146102f05761014b565b8063034d09da146101505780631166f282146101795780631cf118a1146101a457806328443b18146101cf5780633ccfd60b146101fa57806343ae37c314610211575b600080fd5b34801561015c57600080fd5b50610177600480360381019061017291906140a1565b610560565b005b34801561018557600080fd5b5061018e610637565b60405161019b919061415e565b60405180910390f35b3480156101b057600080fd5b506101b9610674565b6040516101c69190614280565b60405180910390f35b3480156101db57600080fd5b506101e461079d565b6040516101f191906142b1565b60405180910390f35b34801561020657600080fd5b5061020f6107ac565b005b34801561021d57600080fd5b50610226610843565b604051610233919061448c565b60405180910390f35b34801561024857600080fd5b50610251610aed565b60405161025e91906145d3565b60405180910390f35b610281600480360381019061027c9190614a23565b610c7c565b60405161028e91906142b1565b60405180910390f35b3480156102a357600080fd5b506102ac61122b565b005b3480156102ba57600080fd5b506102c361123f565b005b3480156102d157600080fd5b506102da6119e1565b6040516102e79190614d55565b60405180910390f35b3480156102fc57600080fd5b5061031760048036038101906103129190614d77565b611e1b565b60405161032491906142b1565b60405180910390f35b34801561033957600080fd5b50610354600480360381019061034f9190614df8565b612145565b6040516103619190614f88565b60405180910390f35b34801561037657600080fd5b5061037f61223c565b60405161038c9190614fb9565b60405180910390f35b3480156103a157600080fd5b506103bc60048036038101906103b791906140a1565b612266565b005b3480156103ca57600080fd5b506103d361256f565b6040516103e091906142b1565b60405180910390f35b61040360048036038101906103fe91906140a1565b612581565b005b34801561041157600080fd5b5061042c60048036038101906104279190615000565b612a4c565b604051610439919061448c565b60405180910390f35b34801561044e57600080fd5b50610469600480360381019061046491906140a1565b612cff565b005b34801561047757600080fd5b50610492600480360381019061048d91906140a1565b612d99565b60405161049f919061510b565b60405180910390f35b3480156104b457600080fd5b506104cf60048036038101906104ca9190614df8565b612eda565b005b3480156104dd57600080fd5b506104f860048036038101906104f391906140a1565b6130fa565b6040516105059190614f88565b60405180910390f35b34801561051a57600080fd5b50610535600480360381019061053091906140a1565b6137b4565b005b34801561054357600080fd5b5061055e60048036038101906105599190615000565b61395b565b005b6105686139de565b60005b606b805490508110156106335781606b828154811061058d5761058c61512d565b5b90600052602060002090600c02016000015403610620576002606b82815481106105ba576105b961512d565b5b90600052602060002090600c020160080160156101000a81548160ff021916908360028111156105ed576105ec614357565b5b0217905550817fc3f451c8eba813b83ed73bf2904347fff970b9ca06227a6507f7e9cd971ff11360405160405180910390a25b808061062b9061518b565b91505061056b565b5050565b60606040518060400160405280601281526020017f6d727061756c393240676d61696c2e636f6d0000000000000000000000000000815250905090565b6060600073ffffffffffffffffffffffffffffffffffffffff163373ffffffffffffffffffffffffffffffffffffffff16036106e5576040517f08c379a00000000000000000000000000000000000000000000000000000000081526004016106dc9061521f565b60405180910390fd5b606d60003373ffffffffffffffffffffffffffffffffffffffff1673ffffffffffffffffffffffffffffffffffffffff168152602001908152602001600020805480602002602001604051908101604052809291908181526020016000905b828210156107945783829060005260206000209060030201604051806060016040529081600082015481526020016001820154815260200160028201548152505081526020019060010190610744565b50505050905090565b6000662386f26fc10000905090565b6107b46139de565b60006107be61223c565b90508073ffffffffffffffffffffffffffffffffffffffff166108fc6068549081150290604051600060405180830381858888f19350505050158015610808573d6000803e3d6000fd5b506068547fb688685b43df87beaf52a34adaa8a32f2d022c3e5818ee2aa0bc88f3a35acac560405160405180910390a2600060688190555050565b61084b613f45565b600073ffffffffffffffffffffffffffffffffffffffff163373ffffffffffffffffffffffffffffffffffffffff16036108ba576040517f08c379a00000000000000000000000000000000000000000000000000000000081526004016108b19061521f565b60405180910390fd5b606a60003373ffffffffffffffffffffffffffffffffffffffff1673ffffffffffffffffffffffffffffffffffffffff1681526020019081526020016000206040518060e00160405290816000820154815260200160018201805461091e9061526e565b80601f016020809104026020016040519081016040528092919081815260200182805461094a9061526e565b80156109975780601f1061096c57610100808354040283529160200191610997565b820191906000526020600020905b81548152906001019060200180831161097a57829003601f168201915b505050505081526020016002820180546109b09061526e565b80601f01602080910402602001604051908101604052809291908181526020018280546109dc9061526e565b8015610a295780601f106109fe57610100808354040283529160200191610a29565b820191906000526020600020905b815481529060010190602001808311610a0c57829003601f168201915b505050505081526020016003820160009054906101000a900473ffffffffffffffffffffffffffffffffffffffff1673ffffffffffffffffffffffffffffffffffffffff1673ffffffffffffffffffffffffffffffffffffffff1681526020016003820160149054906101000a900460ff166001811115610aad57610aac614357565b5b6001811115610abf57610abe614357565b5b81526020016003820160159054906101000a900460ff16151515158152602001600482015481525050905090565b6060600073ffffffffffffffffffffffffffffffffffffffff163373ffffffffffffffffffffffffffffffffffffffff1603610b5e576040517f08c379a0000000000000000000000000000000000000000000000000000000008152600401610b559061521f565b60405180910390fd5b6069805480602002602001604051908101604052809291908181526020016000905b82821015610c73578382906000526020600020906004020160405180608001604052908160008201548152602001600182018054610bbd9061526e565b80601f0160208091040260200160405190810160405280929190818152602001828054610be99061526e565b8015610c365780601f10610c0b57610100808354040283529160200191610c36565b820191906000526020600020905b815481529060010190602001808311610c1957829003601f168201915b505050505081526020016002820160009054906101000a900460ff1615151515815260200160038201548152505081526020019060010190610b80565b50505050905090565b60008073ffffffffffffffffffffffffffffffffffffffff163373ffffffffffffffffffffffffffffffffffffffff1603610cec576040517f08c379a0000000000000000000000000000000000000000000000000000000008152600401610ce39061521f565b60405180910390fd5b6000610cf6610843565b9050600180811115610d0b57610d0a614357565b5b81608001516001811115610d2257610d21614357565b5b14610d62576040517f08c379a0000000000000000000000000000000000000000000000000000000008152600401610d59906152eb565b60405180910390fd5b838360005b606b80549050811015610e3b578282604051602001610d8792919061533b565b60405160208183030381529060405280519060200120606b8281548110610db157610db061512d565b5b90600052602060002090600c0201600201604051602001610dd291906153ec565b6040516020818303038152906040528051906020012003610e28576040517f08c379a0000000000000000000000000000000000000000000000000000000008152600401610e1f9061544f565b60405180910390fd5b8080610e339061518b565b915050610d67565b50662386f26fc10000341015610e86576040517f08c379a0000000000000000000000000000000000000000000000000000000008152600401610e7d906154bb565b60405180910390fd5b610e906066613a5c565b606b604051806101c00160405280610ea86066613a72565b8152602001896000015181526020018960200151815260200189604001518152602001896080015181526020018960a001518152602001600081526020018960c0015181526020013373ffffffffffffffffffffffffffffffffffffffff16815260200160006001811115610f2057610f1f614357565b5b815260200160006002811115610f3957610f38614357565b5b8152602001896060015181526020016001151581526020014281525090806001815401808255809150506001900390600052602060002090600c0201600090919091909150600082015181600001556020820151816001019081610f9d9190615672565b506040820151816002019081610fb39190615672565b506060820151816003019081610fc99190615672565b506080820151816004019081610fdf9190615672565b5060a0820151816005015560c0820151816006015560e082015181600701556101008201518160080160006101000a81548173ffffffffffffffffffffffffffffffffffffffff021916908373ffffffffffffffffffffffffffffffffffffffff1602179055506101208201518160080160146101000a81548160ff0219169083600181111561107257611071614357565b5b02179055506101408201518160080160156101000a81548160ff021916908360028111156110a3576110a2614357565b5b0217905550610160820151816009015561018082015181600a0160006101000a81548160ff0219169083151502179055506101a082015181600b0155505060005b8760e001515181101561118e57606c60006110ff6066613a72565b815260200190815260200160002060405180602001604052808a60e00151848151811061112f5761112e61512d565b5b6020026020010151600001518152509080600181540180825580915050600190039060005260206000200160009091909190915060008201518160000190816111789190615672565b50505080806111869061518b565b9150506110e4565b506111996066613a72565b7fbc0a5edd152fa5b886dcae82c5c109d113708653b4b9c0224549ccdf715af94e60405160405180910390a26111cf6066613a72565b607088602001516040516111e39190615775565b908152602001604051809103902081905550662386f26fc100006068600082825461120e919061578c565b9250508190555061121f6066613a72565b93505050509392505050565b6112336139de565b61123d6000613a80565b565b60008060019054906101000a900460ff161590508080156112705750600160008054906101000a900460ff1660ff16105b8061129d575061127f30613b46565b15801561129c5750600160008054906101000a900460ff1660ff16145b5b6112dc576040517f08c379a00000000000000000000000000000000000000000000000000000000081526004016112d390615832565b60405180910390fd5b60016000806101000a81548160ff021916908360ff1602179055508015611319576001600060016101000a81548160ff0219169083151502179055505b611321613b69565b61132b6065613a5c565b6040518060e001604052806113406065613a72565b81526020016040518060400160405280600581526020017f41646d696e00000000000000000000000000000000000000000000000000000081525081526020016040518060400160405280601281526020017f6d727061756c393240676d61696c2e636f6d000000000000000000000000000081525081526020013373ffffffffffffffffffffffffffffffffffffffff168152602001600060018111156113eb576113ea614357565b5b815260200160011515815260200142815250606a60003373ffffffffffffffffffffffffffffffffffffffff1673ffffffffffffffffffffffffffffffffffffffff16815260200190815260200160002060008201518160000155602082015181600101908161145b9190615672565b5060408201518160020190816114719190615672565b5060608201518160030160006101000a81548173ffffffffffffffffffffffffffffffffffffffff021916908373ffffffffffffffffffffffffffffffffffffffff16021790555060808201518160030160146101000a81548160ff021916908360018111156114e4576114e3614357565b5b021790555060a08201518160030160156101000a81548160ff02191690831515021790555060c082015181600401559050506115206067613a5c565b606960405180608001604052806115376067613a72565b81526020016040518060400160405280600781526020017f4d65646963616c0000000000000000000000000000000000000000000000000081525081526020016001151581526020014281525090806001815401808255809150506001900390600052602060002090600402016000909190919091506000820151816000015560208201518160010190816115cc9190615672565b5060408201518160020160006101000a81548160ff0219169083151502179055506060820151816003015550506116036067613a5c565b6069604051806080016040528061161a6067613a72565b81526020016040518060400160405280600381526020017f4e474f000000000000000000000000000000000000000000000000000000000081525081526020016001151581526020014281525090806001815401808255809150506001900390600052602060002090600402016000909190919091506000820151816000015560208201518160010190816116af9190615672565b5060408201518160020160006101000a81548160ff0219169083151502179055506060820151816003015550506116e66067613a5c565b606960405180608001604052806116fd6067613a72565b81526020016040518060400160405280600881526020017f427573696e65737300000000000000000000000000000000000000000000000081525081526020016001151581526020014281525090806001815401808255809150506001900390600052602060002090600402016000909190919091506000820151816000015560208201518160010190816117929190615672565b5060408201518160020160006101000a81548160ff0219169083151502179055506060820151816003015550506117c96067613a5c565b606960405180608001604052806117e06067613a72565b81526020016040518060400160405280600881526020017f506572736f6e616c00000000000000000000000000000000000000000000000081525081526020016001151581526020014281525090806001815401808255809150506001900390600052602060002090600402016000909190919091506000820151816000015560208201518160010190816118759190615672565b5060408201518160020160006101000a81548160ff0219169083151502179055506060820151816003015550506118ac6067613a5c565b606960405180608001604052806118c36067613a72565b81526020016040518060400160405280600681526020017f4f7468657273000000000000000000000000000000000000000000000000000081525081526020016001151581526020014281525090806001815401808255809150506001900390600052602060002090600402016000909190919091506000820151816000015560208201518160010190816119589190615672565b5060408201518160020160006101000a81548160ff02191690831515021790555060608201518160030155505080156119de5760008060016101000a81548160ff0219169083151502179055507f7f26b83ff96e1f2b6a682f133852f6798a09c465da95921460cefb384740249860016040516119d5919061589a565b60405180910390a15b50565b6060600073ffffffffffffffffffffffffffffffffffffffff163373ffffffffffffffffffffffffffffffffffffffff1603611a52576040517f08c379a0000000000000000000000000000000000000000000000000000000008152600401611a499061521f565b60405180910390fd5b606b805480602002602001604051908101604052809291908181526020016000905b82821015611e1257838290600052602060002090600c0201604051806101c001604052908160008201548152602001600182018054611ab29061526e565b80601f0160208091040260200160405190810160405280929190818152602001828054611ade9061526e565b8015611b2b5780601f10611b0057610100808354040283529160200191611b2b565b820191906000526020600020905b815481529060010190602001808311611b0e57829003601f168201915b50505050508152602001600282018054611b449061526e565b80601f0160208091040260200160405190810160405280929190818152602001828054611b709061526e565b8015611bbd5780601f10611b9257610100808354040283529160200191611bbd565b820191906000526020600020905b815481529060010190602001808311611ba057829003601f168201915b50505050508152602001600382018054611bd69061526e565b80601f0160208091040260200160405190810160405280929190818152602001828054611c029061526e565b8015611c4f5780601f10611c2457610100808354040283529160200191611c4f565b820191906000526020600020905b815481529060010190602001808311611c3257829003601f168201915b50505050508152602001600482018054611c689061526e565b80601f0160208091040260200160405190810160405280929190818152602001828054611c949061526e565b8015611ce15780601f10611cb657610100808354040283529160200191611ce1565b820191906000526020600020905b815481529060010190602001808311611cc457829003601f168201915b505050505081526020016005820154815260200160068201548152602001600782015481526020016008820160009054906101000a900473ffffffffffffffffffffffffffffffffffffffff1673ffffffffffffffffffffffffffffffffffffffff1673ffffffffffffffffffffffffffffffffffffffff1681526020016008820160149054906101000a900460ff166001811115611d8357611d82614357565b5b6001811115611d9557611d94614357565b5b81526020016008820160159054906101000a900460ff166002811115611dbe57611dbd614357565b5b6002811115611dd057611dcf614357565b5b815260200160098201548152602001600a820160009054906101000a900460ff16151515158152602001600b8201548152505081526020019060010190611a74565b50505050905090565b60008073ffffffffffffffffffffffffffffffffffffffff163373ffffffffffffffffffffffffffffffffffffffff1603611e8b576040517f08c379a0000000000000000000000000000000000000000000000000000000008152600401611e829061521f565b60405180910390fd5b8484848460008484905011611ed5576040517f08c379a0000000000000000000000000000000000000000000000000000000008152600401611ecc90615901565b60405180910390fd5b60008282905011611f1b576040517f08c379a0000000000000000000000000000000000000000000000000000000008152600401611f129061596d565b60405180910390fd5b611f256065613a5c565b6040518060e00160405280611f3a6065613a72565b81526020018a8a8080601f016020809104026020016040519081016040528093929190818152602001838380828437600081840152601f19601f82011690508083019250505050505050815260200188888080601f016020809104026020016040519081016040528093929190818152602001838380828437600081840152601f19601f8201169050808301925050505050505081526020013373ffffffffffffffffffffffffffffffffffffffff16815260200160018081111561200257612001614357565b5b815260200160011515815260200142815250606a60003373ffffffffffffffffffffffffffffffffffffffff1673ffffffffffffffffffffffffffffffffffffffff1681526020019081526020016000206000820151816000015560208201518160010190816120729190615672565b5060408201518160020190816120889190615672565b5060608201518160030160006101000a81548173ffffffffffffffffffffffffffffffffffffffff021916908373ffffffffffffffffffffffffffffffffffffffff16021790555060808201518160030160146101000a81548160ff021916908360018111156120fb576120fa614357565b5b021790555060a08201518160030160156101000a81548160ff02191690831515021790555060c082015181600401559050506121376065613a72565b945050505050949350505050565b61214d613fac565b600073ffffffffffffffffffffffffffffffffffffffff163373ffffffffffffffffffffffffffffffffffffffff16036121bc576040517f08c379a00000000000000000000000000000000000000000000000000000000081526004016121b39061521f565b60405180910390fd5b6000607084846040516121d092919061533b565b908152602001604051809103902054905060008111612224576040517f08c379a000000000000000000000000000000000000000000000000000000000815260040161221b906159d9565b60405180910390fd5b600061222f826130fa565b9050809250505092915050565b6000603360009054906101000a900473ffffffffffffffffffffffffffffffffffffffff16905090565b61226e6139de565b8060005b606b805490508110156123265781606b82815481106122945761229361512d565b5b90600052602060002090600c0201600001540361231357606b81815481106122bf576122be61512d565b5b90600052602060002090600c0201600701544211612312576040517f08c379a000000000000000000000000000000000000000000000000000000000815260040161230990615a45565b60405180910390fd5b5b808061231e9061518b565b915050612272565b5060005b606b8054905081101561256a5782606b828154811061234c5761234b61512d565b5b90600052602060002090600c02016000015403612557576001606b82815481106123795761237861512d565b5b90600052602060002090600c020160080160146101000a81548160ff021916908360018111156123ac576123ab614357565b5b0217905550606b81815481106123c5576123c461512d565b5b90600052602060002090600c020160080160009054906101000a900473ffffffffffffffffffffffffffffffffffffffff1673ffffffffffffffffffffffffffffffffffffffff166108fc606b83815481106124245761242361512d565b5b90600052602060002090600c0201600601549081150290604051600060405180830381858888f19350505050158015612461573d6000803e3d6000fd5b50827fbdef6a2e3aa892961a2dab48272f72f2bc1c7121eb1c0ed7e4a58e081c1e4be060405160405180910390a2606b81815481106124a3576124a261512d565b5b90600052602060002090600c020160050154606b82815481106124c9576124c861512d565b5b90600052602060002090600c0201600601541115612556576000606b82815481106124f7576124f661512d565b5b90600052602060002090600c020160050154606b838154811061251d5761251c61512d565b5b90600052602060002090600c0201600601546125399190615a65565b9050806068600082825461254d919061578c565b92505081905550505b5b80806125629061518b565b91505061232a565b505050565b60006125796139de565b606854905090565b600073ffffffffffffffffffffffffffffffffffffffff163373ffffffffffffffffffffffffffffffffffffffff16036125f0576040517f08c379a00000000000000000000000000000000000000000000000000000000081526004016125e79061521f565b60405180910390fd5b8060005b606b805490508110156127b65781606b82815481106126165761261561512d565b5b90600052602060002090600c020160000154036127a3576000600181111561264157612640614357565b5b606b82815481106126555761265461512d565b5b90600052602060002090600c020160080160149054906101000a900460ff16600181111561268657612685614357565b5b146126c6576040517f08c379a00000000000000000000000000000000000000000000000000000000081526004016126bd90615ae5565b60405180910390fd5b600160028111156126da576126d9614357565b5b606b82815481106126ee576126ed61512d565b5b90600052602060002090600c020160080160159054906101000a900460ff16600281111561271f5761271e614357565b5b1461275f576040517f08c379a000000000000000000000000000000000000000000000000000000000815260040161275690615b77565b60405180910390fd5b600034116127a2576040517f08c379a000000000000000000000000000000000000000000000000000000000815260040161279990615be3565b60405180910390fd5b5b80806127ae9061518b565b9150506125f4565b5060005b606b80549050811015612a475782606b82815481106127dc576127db61512d565b5b90600052602060002090600c02016000015403612a345734606b82815481106128085761280761512d565b5b90600052602060002090600c02016006016000828254612828919061578c565b92505081905550606b81815481106128435761284261512d565b5b90600052602060002090600c020160050154606b82815481106128695761286861512d565b5b90600052602060002090600c02016006015410612a21576001606b82815481106128965761289561512d565b5b90600052602060002090600c020160080160146101000a81548160ff021916908360018111156128c9576128c8614357565b5b0217905550606b81815481106128e2576128e161512d565b5b90600052602060002090600c020160080160009054906101000a900473ffffffffffffffffffffffffffffffffffffffff1673ffffffffffffffffffffffffffffffffffffffff166108fc606b83815481106129415761294061512d565b5b90600052602060002090600c0201600501549081150290604051600060405180830381858888f1935050505015801561297e573d6000803e3d6000fd5b50827fbdef6a2e3aa892961a2dab48272f72f2bc1c7121eb1c0ed7e4a58e081c1e4be060405160405180910390a26000606b82815481106129c2576129c161512d565b5b90600052602060002090600c020160050154606b83815481106129e8576129e761512d565b5b90600052602060002090600c020160060154612a049190615a65565b90508060686000828254612a18919061578c565b92505081905550505b612a2a83613bc2565b612a3383613e1f565b5b8080612a3f9061518b565b9150506127ba565b505050565b612a54613f45565b612a5c6139de565b8173ffffffffffffffffffffffffffffffffffffffff168273ffffffffffffffffffffffffffffffffffffffff1614612aca576040517f08c379a0000000000000000000000000000000000000000000000000000000008152600401612ac19061521f565b60405180910390fd5b606a60008373ffffffffffffffffffffffffffffffffffffffff1673ffffffffffffffffffffffffffffffffffffffff1681526020019081526020016000206040518060e001604052908160008201548152602001600182018054612b2e9061526e565b80601f0160208091040260200160405190810160405280929190818152602001828054612b5a9061526e565b8015612ba75780601f10612b7c57610100808354040283529160200191612ba7565b820191906000526020600020905b815481529060010190602001808311612b8a57829003601f168201915b50505050508152602001600282018054612bc09061526e565b80601f0160208091040260200160405190810160405280929190818152602001828054612bec9061526e565b8015612c395780601f10612c0e57610100808354040283529160200191612c39565b820191906000526020600020905b815481529060010190602001808311612c1c57829003601f168201915b505050505081526020016003820160009054906101000a900473ffffffffffffffffffffffffffffffffffffffff1673ffffffffffffffffffffffffffffffffffffffff1673ffffffffffffffffffffffffffffffffffffffff1681526020016003820160149054906101000a900460ff166001811115612cbd57612cbc614357565b5b6001811115612ccf57612cce614357565b5b81526020016003820160159054906101000a900460ff161515151581526020016004820154815250509050919050565b612d076139de565b60005b606980549050811015612d95578160698281548110612d2c57612d2b61512d565b5b90600052602060002090600402016000015403612d8257600060698281548110612d5957612d5861512d565b5b906000526020600020906004020160020160006101000a81548160ff0219169083151502179055505b8080612d8d9061518b565b915050612d0a565b5050565b6060600073ffffffffffffffffffffffffffffffffffffffff163373ffffffffffffffffffffffffffffffffffffffff1603612e0a576040517f08c379a0000000000000000000000000000000000000000000000000000000008152600401612e019061521f565b60405180910390fd5b606f6000838152602001908152602001600020805480602002602001604051908101604052809291908181526020016000905b82821015612ecf57838290600052602060002090600202016040518060400160405290816000820160009054906101000a900473ffffffffffffffffffffffffffffffffffffffff1673ffffffffffffffffffffffffffffffffffffffff1673ffffffffffffffffffffffffffffffffffffffff16815260200160018201548152505081526020019060010190612e3d565b505050509050919050565b612ee26139de565b818160008282905011612f2a576040517f08c379a0000000000000000000000000000000000000000000000000000000008152600401612f2190615c4f565b60405180910390fd5b60005b606980549050811015613001578282604051602001612f4d92919061533b565b6040516020818303038152906040528051906020012060698281548110612f7757612f7661512d565b5b9060005260206000209060040201600101604051602001612f9891906153ec565b6040516020818303038152906040528051906020012003612fee576040517f08c379a0000000000000000000000000000000000000000000000000000000008152600401612fe590615cbb565b60405180910390fd5b8080612ff99061518b565b915050612f2d565b5061300c6067613a5c565b606960405180608001604052806130236067613a72565b815260200186868080601f016020809104026020016040519081016040528093929190818152602001838380828437600081840152601f19601f8201169050808301925050505050505081526020016001151581526020014281525090806001815401808255809150506001900390600052602060002090600402016000909190919091506000820151816000015560208201518160010190816130c79190615672565b5060408201518160020160006101000a81548160ff02191690831515021790555060608201518160030155505050505050565b613102613fac565b600073ffffffffffffffffffffffffffffffffffffffff163373ffffffffffffffffffffffffffffffffffffffff1603613171576040517f08c379a00000000000000000000000000000000000000000000000000000000081526004016131689061521f565b60405180910390fd5b6000604051806101c00160405280600081526020016040518060200160405280600081525081526020016040518060200160405280600081525081526020016040518060200160405280600081525081526020016040518060200160405280600081525081526020016000815260200160008152602001600081526020013073ffffffffffffffffffffffffffffffffffffffff16815260200160018081111561321e5761321d614357565b5b815260200160028081111561323657613235614357565b5b81526020016000815260200160001515815260200142815250905060005b606b805490508110156137aa5783606b82815481106132765761327561512d565b5b90600052602060002090600c0201600001540361379757604051806101c00160405280606b83815481106132ad576132ac61512d565b5b90600052602060002090600c0201600001548152602001606b83815481106132d8576132d761512d565b5b90600052602060002090600c020160010180546132f49061526e565b80601f01602080910402602001604051908101604052809291908181526020018280546133209061526e565b801561336d5780601f106133425761010080835404028352916020019161336d565b820191906000526020600020905b81548152906001019060200180831161335057829003601f168201915b50505050508152602001606b838154811061338b5761338a61512d565b5b90600052602060002090600c020160020180546133a79061526e565b80601f01602080910402602001604051908101604052809291908181526020018280546133d39061526e565b80156134205780601f106133f557610100808354040283529160200191613420565b820191906000526020600020905b81548152906001019060200180831161340357829003601f168201915b50505050508152602001606b838154811061343e5761343d61512d565b5b90600052602060002090600c0201600301805461345a9061526e565b80601f01602080910402602001604051908101604052809291908181526020018280546134869061526e565b80156134d35780601f106134a8576101008083540402835291602001916134d3565b820191906000526020600020905b8154815290600101906020018083116134b657829003601f168201915b50505050508152602001606b83815481106134f1576134f061512d565b5b90600052602060002090600c0201600401805461350d9061526e565b80601f01602080910402602001604051908101604052809291908181526020018280546135399061526e565b80156135865780601f1061355b57610100808354040283529160200191613586565b820191906000526020600020905b81548152906001019060200180831161356957829003601f168201915b50505050508152602001606b83815481106135a4576135a361512d565b5b90600052602060002090600c0201600501548152602001606b83815481106135cf576135ce61512d565b5b90600052602060002090600c0201600601548152602001606b83815481106135fa576135f961512d565b5b90600052602060002090600c0201600701548152602001606b83815481106136255761362461512d565b5b90600052602060002090600c020160080160009054906101000a900473ffffffffffffffffffffffffffffffffffffffff1673ffffffffffffffffffffffffffffffffffffffff168152602001606b83815481106136865761368561512d565b5b90600052602060002090600c020160080160149054906101000a900460ff1660018111156136b7576136b6614357565b5b8152602001606b83815481106136d0576136cf61512d565b5b90600052602060002090600c020160080160159054906101000a900460ff16600281111561370157613700614357565b5b8152602001606b838154811061371a5761371961512d565b5b90600052602060002090600c0201600901548152602001606b83815481106137455761374461512d565b5b90600052602060002090600c0201600a0160009054906101000a900460ff1615158152602001606b838154811061377f5761377e61512d565b5b90600052602060002090600c0201600b015481525091505b80806137a29061518b565b915050613254565b5080915050919050565b6137bc6139de565b60005b606b805490508110156139575781606b82815481106137e1576137e061512d565b5b90600052602060002090600c02016000015403613944576001606b828154811061380e5761380d61512d565b5b90600052602060002090600c020160080160156101000a81548160ff0219169083600281111561384157613840614357565b5b0217905550606e6000606b838154811061385e5761385d61512d565b5b90600052602060002090600c020160080160009054906101000a900473ffffffffffffffffffffffffffffffffffffffff1673ffffffffffffffffffffffffffffffffffffffff1673ffffffffffffffffffffffffffffffffffffffff168152602001908152602001600020606b82815481106138de576138dd61512d565b5b90600052602060002090600c0201600001549080600181540180825580915050600190039060005260206000200160009091909190915055817f3aa476b7499359259e68e236e4ba85f83ff093e3b6341e6a3f6f295d9cd6887760405160405180910390a25b808061394f9061518b565b9150506137bf565b5050565b6139636139de565b600073ffffffffffffffffffffffffffffffffffffffff168173ffffffffffffffffffffffffffffffffffffffff16036139d2576040517f08c379a00000000000000000000000000000000000000000000000000000000081526004016139c990615d4d565b60405180910390fd5b6139db81613a80565b50565b6139e6613edc565b73ffffffffffffffffffffffffffffffffffffffff16613a0461223c565b73ffffffffffffffffffffffffffffffffffffffff1614613a5a576040517f08c379a0000000000000000000000000000000000000000000000000000000008152600401613a5190615db9565b60405180910390fd5b565b6001816000016000828254019250508190555050565b600081600001549050919050565b6000603360009054906101000a900473ffffffffffffffffffffffffffffffffffffffff16905081603360006101000a81548173ffffffffffffffffffffffffffffffffffffffff021916908373ffffffffffffffffffffffffffffffffffffffff1602179055508173ffffffffffffffffffffffffffffffffffffffff168173ffffffffffffffffffffffffffffffffffffffff167f8be0079c531659141344cd1fd0a4f28419497f9722a3daafe3b4186f6b6457e060405160405180910390a35050565b6000808273ffffffffffffffffffffffffffffffffffffffff163b119050919050565b600060019054906101000a900460ff16613bb8576040517f08c379a0000000000000000000000000000000000000000000000000000000008152600401613baf90615e4b565b60405180910390fd5b613bc0613ee4565b565b6000805b606d60003373ffffffffffffffffffffffffffffffffffffffff1673ffffffffffffffffffffffffffffffffffffffff16815260200190815260200160002080549050811015613d715782606d60003373ffffffffffffffffffffffffffffffffffffffff1673ffffffffffffffffffffffffffffffffffffffff1681526020019081526020016000208281548110613c6257613c6161512d565b5b90600052602060002090600302016000015403613d5e5734606d60003373ffffffffffffffffffffffffffffffffffffffff1673ffffffffffffffffffffffffffffffffffffffff1681526020019081526020016000208281548110613ccb57613cca61512d565b5b90600052602060002090600302016001016000828254613ceb919061578c565b9250508190555042606d60003373ffffffffffffffffffffffffffffffffffffffff1673ffffffffffffffffffffffffffffffffffffffff1681526020019081526020016000208281548110613d4457613d4361512d565b5b906000526020600020906003020160020181905550600191505b8080613d699061518b565b915050613bc6565b5080613e1b57606d60003373ffffffffffffffffffffffffffffffffffffffff1673ffffffffffffffffffffffffffffffffffffffff168152602001908152602001600020604051806060016040528084815260200134815260200142815250908060018154018082558091505060019003906000526020600020906003020160009091909190915060008201518160000155602082015181600101556040820151816002015550505b5050565b606f600082815260200190815260200160002060405180604001604052803373ffffffffffffffffffffffffffffffffffffffff16815260200134815250908060018154018082558091505060019003906000526020600020906002020160009091909190915060008201518160000160006101000a81548173ffffffffffffffffffffffffffffffffffffffff021916908373ffffffffffffffffffffffffffffffffffffffff16021790555060208201518160010155505050565b600033905090565b600060019054906101000a900460ff16613f33576040517f08c379a0000000000000000000000000000000000000000000000000000000008152600401613f2a90615e4b565b60405180910390fd5b613f43613f3e613edc565b613a80565b565b6040518060e00160405280600081526020016060815260200160608152602001600073ffffffffffffffffffffffffffffffffffffffff16815260200160006001811115613f9657613f95614357565b5b8152602001600015158152602001600081525090565b604051806101c001604052806000815260200160608152602001606081526020016060815260200160608152602001600081526020016000815260200160008152602001600073ffffffffffffffffffffffffffffffffffffffff1681526020016000600181111561402157614020614357565b5b81526020016000600281111561403a57614039614357565b5b815260200160008152602001600015158152602001600081525090565b6000604051905090565b600080fd5b600080fd5b6000819050919050565b61407e8161406b565b811461408957600080fd5b50565b60008135905061409b81614075565b92915050565b6000602082840312156140b7576140b6614061565b5b60006140c58482850161408c565b91505092915050565b600081519050919050565b600082825260208201905092915050565b60005b838110156141085780820151818401526020810190506140ed565b60008484015250505050565b6000601f19601f8301169050919050565b6000614130826140ce565b61413a81856140d9565b935061414a8185602086016140ea565b61415381614114565b840191505092915050565b600060208201905081810360008301526141788184614125565b905092915050565b600081519050919050565b600082825260208201905092915050565b6000819050602082019050919050565b6141b58161406b565b82525050565b6060820160008201516141d160008501826141ac565b5060208201516141e460208501826141ac565b5060408201516141f760408501826141ac565b50505050565b600061420983836141bb565b60608301905092915050565b6000602082019050919050565b600061422d82614180565b614237818561418b565b93506142428361419c565b8060005b8381101561427357815161425a88826141fd565b975061426583614215565b925050600181019050614246565b5085935050505092915050565b6000602082019050818103600083015261429a8184614222565b905092915050565b6142ab8161406b565b82525050565b60006020820190506142c660008301846142a2565b92915050565b600082825260208201905092915050565b60006142e8826140ce565b6142f281856142cc565b93506143028185602086016140ea565b61430b81614114565b840191505092915050565b600073ffffffffffffffffffffffffffffffffffffffff82169050919050565b600061434182614316565b9050919050565b61435181614336565b82525050565b7f4e487b7100000000000000000000000000000000000000000000000000000000600052602160045260246000fd5b6002811061439757614396614357565b5b50565b60008190506143a882614386565b919050565b60006143b88261439a565b9050919050565b6143c8816143ad565b82525050565b60008115159050919050565b6143e3816143ce565b82525050565b600060e08301600083015161440160008601826141ac565b506020830151848203602086015261441982826142dd565b9150506040830151848203604086015261443382826142dd565b91505060608301516144486060860182614348565b50608083015161445b60808601826143bf565b5060a083015161446e60a08601826143da565b5060c083015161448160c08601826141ac565b508091505092915050565b600060208201905081810360008301526144a681846143e9565b905092915050565b600081519050919050565b600082825260208201905092915050565b6000819050602082019050919050565b60006080830160008301516144f260008601826141ac565b506020830151848203602086015261450a82826142dd565b915050604083015161451f60408601826143da565b50606083015161453260608601826141ac565b508091505092915050565b600061454983836144da565b905092915050565b6000602082019050919050565b6000614569826144ae565b61457381856144b9565b935083602082028501614585856144ca565b8060005b858110156145c157848403895281516145a2858261453d565b94506145ad83614551565b925060208a01995050600181019050614589565b50829750879550505050505092915050565b600060208201905081810360008301526145ed818461455e565b905092915050565b600080fd5b7f4e487b7100000000000000000000000000000000000000000000000000000000600052604160045260246000fd5b61463282614114565b810181811067ffffffffffffffff82111715614651576146506145fa565b5b80604052505050565b6000614664614057565b90506146708282614629565b919050565b600080fd5b600080fd5b600080fd5b600067ffffffffffffffff82111561469f5761469e6145fa565b5b6146a882614114565b9050602081019050919050565b82818337600083830152505050565b60006146d76146d284614684565b61465a565b9050828152602081018484840111156146f3576146f261467f565b5b6146fe8482856146b5565b509392505050565b600082601f83011261471b5761471a61467a565b5b813561472b8482602086016146c4565b91505092915050565b600067ffffffffffffffff82111561474f5761474e6145fa565b5b602082029050602081019050919050565b600080fd5b60006020828403121561477b5761477a6145f5565b5b614785602061465a565b9050600082013567ffffffffffffffff8111156147a5576147a4614675565b5b6147b184828501614706565b60008301525092915050565b60006147d06147cb84614734565b61465a565b905080838252602082019050602084028301858111156147f3576147f2614760565b5b835b8181101561483a57803567ffffffffffffffff8111156148185761481761467a565b5b8086016148258982614765565b855260208501945050506020810190506147f5565b5050509392505050565b600082601f8301126148595761485861467a565b5b81356148698482602086016147bd565b91505092915050565b60006101008284031215614889576148886145f5565b5b61489461010061465a565b9050600082013567ffffffffffffffff8111156148b4576148b3614675565b5b6148c084828501614706565b600083015250602082013567ffffffffffffffff8111156148e4576148e3614675565b5b6148f084828501614706565b602083015250604082013567ffffffffffffffff81111561491457614913614675565b5b61492084828501614706565b60408301525060606149348482850161408c565b606083015250608082013567ffffffffffffffff81111561495857614957614675565b5b61496484828501614706565b60808301525060a06149788482850161408c565b60a08301525060c061498c8482850161408c565b60c08301525060e082013567ffffffffffffffff8111156149b0576149af614675565b5b6149bc84828501614844565b60e08301525092915050565b600080fd5b60008083601f8401126149e3576149e261467a565b5b8235905067ffffffffffffffff811115614a00576149ff6149c8565b5b602083019150836001820283011115614a1c57614a1b614760565b5b9250929050565b600080600060408486031215614a3c57614a3b614061565b5b600084013567ffffffffffffffff811115614a5a57614a59614066565b5b614a6686828701614872565b935050602084013567ffffffffffffffff811115614a8757614a86614066565b5b614a93868287016149cd565b92509250509250925092565b600081519050919050565b600082825260208201905092915050565b6000819050602082019050919050565b6000614ad682614316565b9050919050565b614ae681614acb565b82525050565b60028110614afd57614afc614357565b5b50565b6000819050614b0e82614aec565b919050565b6000614b1e82614b00565b9050919050565b614b2e81614b13565b82525050565b60038110614b4557614b44614357565b5b50565b6000819050614b5682614b34565b919050565b6000614b6682614b48565b9050919050565b614b7681614b5b565b82525050565b60006101c083016000830151614b9560008601826141ac565b5060208301518482036020860152614bad82826142dd565b91505060408301518482036040860152614bc782826142dd565b91505060608301518482036060860152614be182826142dd565b91505060808301518482036080860152614bfb82826142dd565b91505060a0830151614c1060a08601826141ac565b5060c0830151614c2360c08601826141ac565b5060e0830151614c3660e08601826141ac565b50610100830151614c4b610100860182614add565b50610120830151614c60610120860182614b25565b50610140830151614c75610140860182614b6d565b50610160830151614c8a6101608601826141ac565b50610180830151614c9f6101808601826143da565b506101a0830151614cb46101a08601826141ac565b508091505092915050565b6000614ccb8383614b7c565b905092915050565b6000602082019050919050565b6000614ceb82614a9f565b614cf58185614aaa565b935083602082028501614d0785614abb565b8060005b85811015614d435784840389528151614d248582614cbf565b9450614d2f83614cd3565b925060208a01995050600181019050614d0b565b50829750879550505050505092915050565b60006020820190508181036000830152614d6f8184614ce0565b905092915050565b60008060008060408587031215614d9157614d90614061565b5b600085013567ffffffffffffffff811115614daf57614dae614066565b5b614dbb878288016149cd565b9450945050602085013567ffffffffffffffff811115614dde57614ddd614066565b5b614dea878288016149cd565b925092505092959194509250565b60008060208385031215614e0f57614e0e614061565b5b600083013567ffffffffffffffff811115614e2d57614e2c614066565b5b614e39858286016149cd565b92509250509250929050565b60006101c083016000830151614e5e60008601826141ac565b5060208301518482036020860152614e7682826142dd565b91505060408301518482036040860152614e9082826142dd565b91505060608301518482036060860152614eaa82826142dd565b91505060808301518482036080860152614ec482826142dd565b91505060a0830151614ed960a08601826141ac565b5060c0830151614eec60c08601826141ac565b5060e0830151614eff60e08601826141ac565b50610100830151614f14610100860182614add565b50610120830151614f29610120860182614b25565b50610140830151614f3e610140860182614b6d565b50610160830151614f536101608601826141ac565b50610180830151614f686101808601826143da565b506101a0830151614f7d6101a08601826141ac565b508091505092915050565b60006020820190508181036000830152614fa28184614e45565b905092915050565b614fb381614336565b82525050565b6000602082019050614fce6000830184614faa565b92915050565b614fdd81614336565b8114614fe857600080fd5b50565b600081359050614ffa81614fd4565b92915050565b60006020828403121561501657615015614061565b5b600061502484828501614feb565b91505092915050565b600081519050919050565b600082825260208201905092915050565b6000819050602082019050919050565b60408201600082015161506f6000850182614add565b50602082015161508260208501826141ac565b50505050565b60006150948383615059565b60408301905092915050565b6000602082019050919050565b60006150b88261502d565b6150c28185615038565b93506150cd83615049565b8060005b838110156150fe5781516150e58882615088565b97506150f0836150a0565b9250506001810190506150d1565b5085935050505092915050565b6000602082019050818103600083015261512581846150ad565b905092915050565b7f4e487b7100000000000000000000000000000000000000000000000000000000600052603260045260246000fd5b7f4e487b7100000000000000000000000000000000000000000000000000000000600052601160045260246000fd5b60006151968261406b565b91507fffffffffffffffffffffffffffffffffffffffffffffffffffffffffffffffff82036151c8576151c761515c565b5b600182019050919050565b7f4e6f7420612076616c6964206164647265737321000000000000000000000000600082015250565b60006152096014836140d9565b9150615214826151d3565b602082019050919050565b60006020820190508181036000830152615238816151fc565b9050919050565b7f4e487b7100000000000000000000000000000000000000000000000000000000600052602260045260246000fd5b6000600282049050600182168061528657607f821691505b6020821081036152995761529861523f565b5b50919050565b7f55736572206973206e6f742046756e6452616973657221000000000000000000600082015250565b60006152d56017836140d9565b91506152e08261529f565b602082019050919050565b60006020820190508181036000830152615304816152c8565b9050919050565b600081905092915050565b6000615322838561530b565b935061532f8385846146b5565b82840190509392505050565b6000615348828486615316565b91508190509392505050565b60008190508160005260206000209050919050565b600081546153768161526e565b615380818661530b565b9450600182166000811461539b57600181146153b0576153e3565b60ff19831686528115158202860193506153e3565b6153b985615354565b60005b838110156153db578154818901526001820191506020810190506153bc565b838801955050505b50505092915050565b60006153f88284615369565b915081905092915050565b7f43616d706169676e206e616d6520616c72656164792065786973747321000000600082015250565b6000615439601d836140d9565b915061544482615403565b602082019050919050565b600060208201905081810360008301526154688161542c565b9050919050565b7f566572696669636174696f6e20636f737420646f6573206e6f74206d65742100600082015250565b60006154a5601f836140d9565b91506154b08261546f565b602082019050919050565b600060208201905081810360008301526154d481615498565b9050919050565b60006020601f8301049050919050565b600082821b905092915050565b6000600883026155287fffffffffffffffffffffffffffffffffffffffffffffffffffffffffffffffff826154eb565b61553286836154eb565b95508019841693508086168417925050509392505050565b6000819050919050565b600061556f61556a6155658461406b565b61554a565b61406b565b9050919050565b6000819050919050565b61558983615554565b61559d61559582615576565b8484546154f8565b825550505050565b600090565b6155b26155a5565b6155bd818484615580565b505050565b5b818110156155e1576155d66000826155aa565b6001810190506155c3565b5050565b601f821115615626576155f781615354565b615600846154db565b8101602085101561560f578190505b61562361561b856154db565b8301826155c2565b50505b505050565b600082821c905092915050565b60006156496000198460080261562b565b1980831691505092915050565b60006156628383615638565b9150826002028217905092915050565b61567b826140ce565b67ffffffffffffffff811115615694576156936145fa565b5b61569e825461526e565b6156a98282856155e5565b600060209050601f8311600181146156dc57600084156156ca578287015190505b6156d48582615656565b86555061573c565b601f1984166156ea86615354565b60005b82811015615712578489015182556001820191506020850194506020810190506156ed565b8683101561572f578489015161572b601f891682615638565b8355505b6001600288020188555050505b505050505050565b600061574f826140ce565b615759818561530b565b93506157698185602086016140ea565b80840191505092915050565b60006157818284615744565b915081905092915050565b60006157978261406b565b91506157a28361406b565b92508282019050808211156157ba576157b961515c565b5b92915050565b7f496e697469616c697a61626c653a20636f6e747261637420697320616c72656160008201527f647920696e697469616c697a6564000000000000000000000000000000000000602082015250565b600061581c602e836140d9565b9150615827826157c0565b604082019050919050565b6000602082019050818103600083015261584b8161580f565b9050919050565b6000819050919050565b600060ff82169050919050565b600061588461587f61587a84615852565b61554a565b61585c565b9050919050565b61589481615869565b82525050565b60006020820190506158af600083018461588b565b92915050565b7f4e616d6520697320726571756972656421000000000000000000000000000000600082015250565b60006158eb6011836140d9565b91506158f6826158b5565b602082019050919050565b6000602082019050818103600083015261591a816158de565b9050919050565b7f456d61696c206973207265717569726564210000000000000000000000000000600082015250565b60006159576012836140d9565b915061596282615921565b602082019050919050565b600060208201905081810360008301526159868161594a565b9050919050565b7f43616d706169676e204e6f7420666f756e642100000000000000000000000000600082015250565b60006159c36013836140d9565b91506159ce8261598d565b602082019050919050565b600060208201905081810360008301526159f2816159b6565b9050919050565b7f446561646c696e65206e6f74206d657420796574210000000000000000000000600082015250565b6000615a2f6015836140d9565b9150615a3a826159f9565b602082019050919050565b60006020820190508181036000830152615a5e81615a22565b9050919050565b6000615a708261406b565b9150615a7b8361406b565b9250828203905081811115615a9357615a9261515c565b5b92915050565b7f43616d706169676e20726561636865642069747320676f616c21000000000000600082015250565b6000615acf601a836140d9565b9150615ada82615a99565b602082019050919050565b60006020820190508181036000830152615afe81615ac2565b9050919050565b7f43616d706169676e206973206e6f7420417661696c61626c6520666f7220667560008201527f6e64696e67210000000000000000000000000000000000000000000000000000602082015250565b6000615b616026836140d9565b9150615b6c82615b05565b604082019050919050565b60006020820190508181036000830152615b9081615b54565b9050919050565b7f416d6f756e742072657175697265642100000000000000000000000000000000600082015250565b6000615bcd6010836140d9565b9150615bd882615b97565b602082019050919050565b60006020820190508181036000830152615bfc81615bc0565b9050919050565b7f43617465676f7279206e616d6520697320726571756972656421000000000000600082015250565b6000615c39601a836140d9565b9150615c4482615c03565b602082019050919050565b60006020820190508181036000830152615c6881615c2c565b9050919050565b7f43617465676f7279206e616d6520616c72656164792065786973747321000000600082015250565b6000615ca5601d836140d9565b9150615cb082615c6f565b602082019050919050565b60006020820190508181036000830152615cd481615c98565b9050919050565b7f4f776e61626c653a206e6577206f776e657220697320746865207a65726f206160008201527f6464726573730000000000000000000000000000000000000000000000000000602082015250565b6000615d376026836140d9565b9150615d4282615cdb565b604082019050919050565b60006020820190508181036000830152615d6681615d2a565b9050919050565b7f4f776e61626c653a2063616c6c6572206973206e6f7420746865206f776e6572600082015250565b6000615da36020836140d9565b9150615dae82615d6d565b602082019050919050565b60006020820190508181036000830152615dd281615d96565b9050919050565b7f496e697469616c697a61626c653a20636f6e7472616374206973206e6f74206960008201527f6e697469616c697a696e67000000000000000000000000000000000000000000602082015250565b6000615e35602b836140d9565b9150615e4082615dd9565b604082019050919050565b60006020820190508181036000830152615e6481615e28565b905091905056fea26469706673582212206ad1f7c080995d6a92056f397ab287456ecd6e29e19ec00ca41e828d3b5be97864736f6c63430008110033",
  "linkReferences": {},
  "deployedLinkReferences": {}
}