{
  "_format": "hh-sol-artifact-1",
  "contractName": "CrowdFunding",
  "sourceName": "contracts/CrowdFunding.sol",
  "abi": [
    {
      "anonymous": false,
      "inputs": [
        {
          "indexed": true,
          "internalType": "uint256",
          "name": "id",
          "type": "uint256"
        }
      ],
      "name": "CampaignApproved",
      "type": "event"
    },
    {
      "anonymous": false,
      "inputs": [
        {
          "indexed": true,
          "internalType": "uint256",
          "name": "id",
          "type": "uint256"
        }
      ],
      "name": "CampaignCompleted",
      "type": "event"
    },
    {
      "anonymous": false,
      "inputs": [
        {
          "indexed": true,
          "internalType": "uint256",
          "name": "id",
          "type": "uint256"
        }
      ],
      "name": "CampaignCreated",
      "type": "event"
    },
    {
      "anonymous": false,
      "inputs": [
        {
          "indexed": true,
          "internalType": "uint256",
          "name": "id",
          "type": "uint256"
        }
      ],
      "name": "CampaignRejected",
      "type": "event"
    },
    {
      "anonymous": false,
      "inputs": [
        {
          "indexed": false,
          "internalType": "uint8",
          "name": "version",
          "type": "uint8"
        }
      ],
      "name": "Initialized",
      "type": "event"
    },
    {
      "anonymous": false,
      "inputs": [
        {
          "indexed": true,
          "internalType": "address",
          "name": "previousOwner",
          "type": "address"
        },
        {
          "indexed": true,
          "internalType": "address",
          "name": "newOwner",
          "type": "address"
        }
      ],
      "name": "OwnershipTransferred",
      "type": "event"
    },
    {
      "anonymous": false,
      "inputs": [
        {
          "indexed": true,
          "internalType": "uint256",
          "name": "amount",
          "type": "uint256"
        }
      ],
      "name": "withdrawalComplete",
      "type": "event"
    },
    {
      "inputs": [
        {
          "components": [
            {
              "internalType": "string",
              "name": "_name",
              "type": "string"
            },
            {
              "internalType": "string",
              "name": "_slug",
              "type": "string"
            },
            {
              "internalType": "string",
              "name": "_description",
              "type": "string"
            },
            {
              "internalType": "uint256",
              "name": "_categoryId",
              "type": "uint256"
            },
            {
              "internalType": "string",
              "name": "_imageHash",
              "type": "string"
            },
            {
              "internalType": "uint256",
              "name": "_goalAmount",
              "type": "uint256"
            },
            {
              "internalType": "uint256",
              "name": "_deadline",
              "type": "uint256"
            },
            {
              "components": [
                {
                  "internalType": "string",
                  "name": "ipfsHash",
                  "type": "string"
                }
              ],
              "internalType": "struct CrowdFunding.File[]",
              "name": "_files",
              "type": "tuple[]"
            }
          ],
          "internalType": "struct CrowdFunding.AddCampaignPayload",
          "name": "data",
          "type": "tuple"
        }
      ],
      "name": "addCampaign",
      "outputs": [
        {
          "internalType": "uint256",
          "name": "",
          "type": "uint256"
        }
      ],
      "stateMutability": "payable",
      "type": "function"
    },
    {
      "inputs": [
        {
          "internalType": "uint256",
          "name": "_id",
          "type": "uint256"
        }
      ],
      "name": "approveCampaign",
      "outputs": [],
      "stateMutability": "nonpayable",
      "type": "function"
    },
    {
      "inputs": [
        {
          "internalType": "uint256",
          "name": "_id",
          "type": "uint256"
        }
      ],
      "name": "completeCampaign",
      "outputs": [],
      "stateMutability": "nonpayable",
      "type": "function"
    },
    {
      "inputs": [
        {
          "internalType": "uint256",
          "name": "_id",
          "type": "uint256"
        }
      ],
      "name": "contribute",
      "outputs": [],
      "stateMutability": "payable",
      "type": "function"
    },
    {
      "inputs": [
        {
          "internalType": "string",
          "name": "_name",
          "type": "string"
        }
      ],
      "name": "createCategory",
      "outputs": [],
      "stateMutability": "nonpayable",
      "type": "function"
    },
    {
      "inputs": [
        {
          "internalType": "string",
          "name": "_name",
          "type": "string"
        },
        {
          "internalType": "string",
          "name": "_email",
          "type": "string"
        }
      ],
      "name": "createUser",
      "outputs": [
        {
          "internalType": "uint256",
          "name": "",
          "type": "uint256"
        }
      ],
      "stateMutability": "nonpayable",
      "type": "function"
    },
    {
      "inputs": [
        {
          "internalType": "uint256",
          "name": "_id",
          "type": "uint256"
        }
      ],
      "name": "deleteCategory",
      "outputs": [],
      "stateMutability": "nonpayable",
      "type": "function"
    },
    {
      "inputs": [],
      "name": "getAllCampaigns",
      "outputs": [
        {
          "components": [
            {
              "internalType": "uint256",
              "name": "id",
              "type": "uint256"
            },
            {
              "internalType": "string",
              "name": "name",
              "type": "string"
            },
            {
              "internalType": "string",
              "name": "slug",
              "type": "string"
            },
            {
              "internalType": "string",
              "name": "description",
              "type": "string"
            },
            {
              "internalType": "string",
              "name": "imageHash",
              "type": "string"
            },
            {
              "internalType": "uint256",
              "name": "goalAmount",
              "type": "uint256"
            },
            {
              "internalType": "uint256",
              "name": "currentBalance",
              "type": "uint256"
            },
            {
              "internalType": "uint256",
              "name": "deadline",
              "type": "uint256"
            },
            {
              "internalType": "address payable",
              "name": "creator",
              "type": "address"
            },
            {
              "internalType": "enum CrowdFunding.CampaignStatus",
              "name": "campaignStatus",
              "type": "uint8"
            },
            {
              "internalType": "enum CrowdFunding.CampaignApprovalStatus",
              "name": "campaignApprovalStatus",
              "type": "uint8"
            },
            {
              "internalType": "uint256",
              "name": "categoryId",
              "type": "uint256"
            },
            {
              "internalType": "bool",
              "name": "status",
              "type": "bool"
            },
            {
              "internalType": "uint256",
              "name": "timestamp",
              "type": "uint256"
            }
          ],
          "internalType": "struct CrowdFunding.Campaign[]",
          "name": "",
          "type": "tuple[]"
        }
      ],
      "stateMutability": "view",
      "type": "function"
    },
    {
      "inputs": [
        {
          "internalType": "uint256",
          "name": "_id",
          "type": "uint256"
        }
      ],
      "name": "getCampaignById",
      "outputs": [
        {
          "components": [
            {
              "internalType": "uint256",
              "name": "id",
              "type": "uint256"
            },
            {
              "internalType": "string",
              "name": "name",
              "type": "string"
            },
            {
              "internalType": "string",
              "name": "slug",
              "type": "string"
            },
            {
              "internalType": "string",
              "name": "description",
              "type": "string"
            },
            {
              "internalType": "string",
              "name": "imageHash",
              "type": "string"
            },
            {
              "internalType": "uint256",
              "name": "goalAmount",
              "type": "uint256"
            },
            {
              "internalType": "uint256",
              "name": "currentBalance",
              "type": "uint256"
            },
            {
              "internalType": "uint256",
              "name": "deadline",
              "type": "uint256"
            },
            {
              "internalType": "address payable",
              "name": "creator",
              "type": "address"
            },
            {
              "internalType": "enum CrowdFunding.CampaignStatus",
              "name": "campaignStatus",
              "type": "uint8"
            },
            {
              "internalType": "enum CrowdFunding.CampaignApprovalStatus",
              "name": "campaignApprovalStatus",
              "type": "uint8"
            },
            {
              "internalType": "uint256",
              "name": "categoryId",
              "type": "uint256"
            },
            {
              "internalType": "bool",
              "name": "status",
              "type": "bool"
            },
            {
              "internalType": "uint256",
              "name": "timestamp",
              "type": "uint256"
            }
          ],
          "internalType": "struct CrowdFunding.Campaign",
          "name": "",
          "type": "tuple"
        }
      ],
      "stateMutability": "view",
      "type": "function"
    },
    {
      "inputs": [
        {
          "internalType": "string",
          "name": "_slug",
          "type": "string"
        }
      ],
      "name": "getCampaignBySlug",
      "outputs": [
        {
          "components": [
            {
              "internalType": "uint256",
              "name": "id",
              "type": "uint256"
            },
            {
              "internalType": "string",
              "name": "name",
              "type": "string"
            },
            {
              "internalType": "string",
              "name": "slug",
              "type": "string"
            },
            {
              "internalType": "string",
              "name": "description",
              "type": "string"
            },
            {
              "internalType": "string",
              "name": "imageHash",
              "type": "string"
            },
            {
              "internalType": "uint256",
              "name": "goalAmount",
              "type": "uint256"
            },
            {
              "internalType": "uint256",
              "name": "currentBalance",
              "type": "uint256"
            },
            {
              "internalType": "uint256",
              "name": "deadline",
              "type": "uint256"
            },
            {
              "internalType": "address payable",
              "name": "creator",
              "type": "address"
            },
            {
              "internalType": "enum CrowdFunding.CampaignStatus",
              "name": "campaignStatus",
              "type": "uint8"
            },
            {
              "internalType": "enum CrowdFunding.CampaignApprovalStatus",
              "name": "campaignApprovalStatus",
              "type": "uint8"
            },
            {
              "internalType": "uint256",
              "name": "categoryId",
              "type": "uint256"
            },
            {
              "internalType": "bool",
              "name": "status",
              "type": "bool"
            },
            {
              "internalType": "uint256",
              "name": "timestamp",
              "type": "uint256"
            }
          ],
          "internalType": "struct CrowdFunding.Campaign",
          "name": "",
          "type": "tuple"
        }
      ],
      "stateMutability": "view",
      "type": "function"
    },
    {
      "inputs": [
        {
          "internalType": "uint256",
          "name": "_id",
          "type": "uint256"
        }
      ],
      "name": "getCampaignContributions",
      "outputs": [
        {
          "components": [
            {
              "internalType": "address payable",
              "name": "contributor",
              "type": "address"
            },
            {
              "internalType": "uint256",
              "name": "amount",
              "type": "uint256"
            }
          ],
          "internalType": "struct CrowdFunding.Contribution[]",
          "name": "",
          "type": "tuple[]"
        }
      ],
      "stateMutability": "view",
      "type": "function"
    },
    {
      "inputs": [],
      "name": "getCategories",
      "outputs": [
        {
          "components": [
            {
              "internalType": "uint256",
              "name": "id",
              "type": "uint256"
            },
            {
              "internalType": "string",
              "name": "name",
              "type": "string"
            },
            {
              "internalType": "bool",
              "name": "status",
              "type": "bool"
            },
            {
              "internalType": "uint256",
              "name": "timestamp",
              "type": "uint256"
            }
          ],
          "internalType": "struct CrowdFunding.Category[]",
          "name": "",
          "type": "tuple[]"
        }
      ],
      "stateMutability": "view",
      "type": "function"
    },
    {
      "inputs": [],
      "name": "getContactEmail",
      "outputs": [
        {
          "internalType": "string",
          "name": "",
          "type": "string"
        }
      ],
      "stateMutability": "pure",
      "type": "function"
    },
    {
      "inputs": [],
      "name": "getCurrentUser",
      "outputs": [
        {
          "components": [
            {
              "internalType": "uint256",
              "name": "id",
              "type": "uint256"
            },
            {
              "internalType": "string",
              "name": "name",
              "type": "string"
            },
            {
              "internalType": "string",
              "name": "email",
              "type": "string"
            },
            {
              "internalType": "address",
              "name": "key",
              "type": "address"
            },
            {
              "internalType": "enum CrowdFunding.UserRole",
              "name": "role",
              "type": "uint8"
            },
            {
              "internalType": "bool",
              "name": "status",
              "type": "bool"
            },
            {
              "internalType": "uint256",
              "name": "timestamp",
              "type": "uint256"
            }
          ],
          "internalType": "struct CrowdFunding.User",
          "name": "",
          "type": "tuple"
        }
      ],
      "stateMutability": "view",
      "type": "function"
    },
    {
      "inputs": [],
      "name": "getUserContributions",
      "outputs": [
        {
          "components": [
            {
              "internalType": "uint256",
              "name": "campaignId",
              "type": "uint256"
            },
            {
              "internalType": "uint256",
              "name": "amount",
              "type": "uint256"
            },
            {
              "internalType": "uint256",
              "name": "timestamp",
              "type": "uint256"
            }
          ],
          "internalType": "struct CrowdFunding.UserContribution[]",
          "name": "",
          "type": "tuple[]"
        }
      ],
      "stateMutability": "view",
      "type": "function"
    },
    {
      "inputs": [
        {
          "internalType": "address",
          "name": "_address",
          "type": "address"
        }
      ],
      "name": "getUserDetails",
      "outputs": [
        {
          "components": [
            {
              "internalType": "uint256",
              "name": "id",
              "type": "uint256"
            },
            {
              "internalType": "string",
              "name": "name",
              "type": "string"
            },
            {
              "internalType": "string",
              "name": "email",
              "type": "string"
            },
            {
              "internalType": "address",
              "name": "key",
              "type": "address"
            },
            {
              "internalType": "enum CrowdFunding.UserRole",
              "name": "role",
              "type": "uint8"
            },
            {
              "internalType": "bool",
              "name": "status",
              "type": "bool"
            },
            {
              "internalType": "uint256",
              "name": "timestamp",
              "type": "uint256"
            }
          ],
          "internalType": "struct CrowdFunding.User",
          "name": "",
          "type": "tuple"
        }
      ],
      "stateMutability": "view",
      "type": "function"
    },
    {
      "inputs": [],
      "name": "getVerificationAmount",
      "outputs": [
        {
          "internalType": "uint256",
          "name": "",
          "type": "uint256"
        }
      ],
      "stateMutability": "pure",
      "type": "function"
    },
    {
      "inputs": [],
      "name": "getWithdrawableBalance",
      "outputs": [
        {
          "internalType": "uint256",
          "name": "",
          "type": "uint256"
        }
      ],
      "stateMutability": "view",
      "type": "function"
    },
    {
      "inputs": [],
      "name": "initialize",
      "outputs": [],
      "stateMutability": "nonpayable",
      "type": "function"
    },
    {
      "inputs": [],
      "name": "owner",
      "outputs": [
        {
          "internalType": "address",
          "name": "",
          "type": "address"
        }
      ],
      "stateMutability": "view",
      "type": "function"
    },
    {
      "inputs": [
        {
          "internalType": "uint256",
          "name": "_id",
          "type": "uint256"
        }
      ],
      "name": "rejectCampaign",
      "outputs": [],
      "stateMutability": "nonpayable",
      "type": "function"
    },
    {
      "inputs": [],
      "name": "renounceOwnership",
      "outputs": [],
      "stateMutability": "nonpayable",
      "type": "function"
    },
    {
      "inputs": [
        {
          "internalType": "address",
          "name": "newOwner",
          "type": "address"
        }
      ],
      "name": "transferOwnership",
      "outputs": [],
      "stateMutability": "nonpayable",
      "type": "function"
    },
    {
      "inputs": [],
      "name": "withdraw",
      "outputs": [],
      "stateMutability": "nonpayable",
      "type": "function"
    }
  ],
  "bytecode": "0x608060405234801561001057600080fd5b50615d2480620000216000396000f3fe60806040526004361061014b5760003560e01c80638da5cb5b116100b6578063ceca737f1161006f578063ceca737f14610442578063d3b0c32c1461046b578063dc298682146104a8578063e6ffcaa1146104d1578063ee4e1b531461050e578063f2fde38b146105375761014b565b80638da5cb5b1461033a578063922c2f1f146103655780639553f18014610395578063be788e70146103be578063c1cbbca7146103e9578063cc3d967b146104055761014b565b80634db0412c116101085780634db0412c1461023c578063715018a6146102675780638129fc1c1461027e57806386cdf6041461029557806387b162b5146102c05780638d75747a146102fd5761014b565b8063034d09da146101505780631166f282146101795780631cf118a1146101a457806328443b18146101cf5780633ccfd60b146101fa57806343ae37c314610211575b600080fd5b34801561015c57600080fd5b5061017760048036038101906101729190613fc3565b610560565b005b34801561018557600080fd5b5061018e610637565b60405161019b9190614080565b60405180910390f35b3480156101b057600080fd5b506101b9610674565b6040516101c691906141a2565b60405180910390f35b3480156101db57600080fd5b506101e461079d565b6040516101f191906141d3565b60405180910390f35b34801561020657600080fd5b5061020f6107ac565b005b34801561021d57600080fd5b50610226610843565b60405161023391906143ae565b60405180910390f35b34801561024857600080fd5b50610251610aed565b60405161025e91906144f5565b60405180910390f35b34801561027357600080fd5b5061027c610c7c565b005b34801561028a57600080fd5b50610293610c90565b005b3480156102a157600080fd5b506102aa611432565b6040516102b791906147cd565b60405180910390f35b3480156102cc57600080fd5b506102e760048036038101906102e29190614854565b61186c565b6040516102f491906141d3565b60405180910390f35b34801561030957600080fd5b50610324600480360381019061031f91906148d5565b611b96565b6040516103319190614a65565b60405180910390f35b34801561034657600080fd5b5061034f611c8d565b60405161035c9190614a96565b60405180910390f35b61037f600480360381019061037a9190614e7a565b611cb7565b60405161038c91906141d3565b60405180910390f35b3480156103a157600080fd5b506103bc60048036038101906103b79190613fc3565b612188565b005b3480156103ca57600080fd5b506103d3612491565b6040516103e091906141d3565b60405180910390f35b61040360048036038101906103fe9190613fc3565b6124a3565b005b34801561041157600080fd5b5061042c60048036038101906104279190614eef565b61296e565b60405161043991906143ae565b60405180910390f35b34801561044e57600080fd5b5061046960048036038101906104649190613fc3565b612c21565b005b34801561047757600080fd5b50610492600480360381019061048d9190613fc3565b612cbb565b60405161049f9190614ffa565b60405180910390f35b3480156104b457600080fd5b506104cf60048036038101906104ca91906148d5565b612dfc565b005b3480156104dd57600080fd5b506104f860048036038101906104f39190613fc3565b61301c565b6040516105059190614a65565b60405180910390f35b34801561051a57600080fd5b5061053560048036038101906105309190613fc3565b6136d6565b005b34801561054357600080fd5b5061055e60048036038101906105599190614eef565b61387d565b005b610568613900565b60005b606b805490508110156106335781606b828154811061058d5761058c61501c565b5b90600052602060002090600c02016000015403610620576002606b82815481106105ba576105b961501c565b5b90600052602060002090600c020160080160156101000a81548160ff021916908360028111156105ed576105ec614279565b5b0217905550817fc3f451c8eba813b83ed73bf2904347fff970b9ca06227a6507f7e9cd971ff11360405160405180910390a25b808061062b9061507a565b91505061056b565b5050565b60606040518060400160405280601281526020017f6d727061756c393240676d61696c2e636f6d0000000000000000000000000000815250905090565b6060600073ffffffffffffffffffffffffffffffffffffffff163373ffffffffffffffffffffffffffffffffffffffff16036106e5576040517f08c379a00000000000000000000000000000000000000000000000000000000081526004016106dc9061510e565b60405180910390fd5b606d60003373ffffffffffffffffffffffffffffffffffffffff1673ffffffffffffffffffffffffffffffffffffffff168152602001908152602001600020805480602002602001604051908101604052809291908181526020016000905b828210156107945783829060005260206000209060030201604051806060016040529081600082015481526020016001820154815260200160028201548152505081526020019060010190610744565b50505050905090565b6000662386f26fc10000905090565b6107b4613900565b60006107be611c8d565b90508073ffffffffffffffffffffffffffffffffffffffff166108fc6068549081150290604051600060405180830381858888f19350505050158015610808573d6000803e3d6000fd5b506068547fb688685b43df87beaf52a34adaa8a32f2d022c3e5818ee2aa0bc88f3a35acac560405160405180910390a2600060688190555050565b61084b613e67565b600073ffffffffffffffffffffffffffffffffffffffff163373ffffffffffffffffffffffffffffffffffffffff16036108ba576040517f08c379a00000000000000000000000000000000000000000000000000000000081526004016108b19061510e565b60405180910390fd5b606a60003373ffffffffffffffffffffffffffffffffffffffff1673ffffffffffffffffffffffffffffffffffffffff1681526020019081526020016000206040518060e00160405290816000820154815260200160018201805461091e9061515d565b80601f016020809104026020016040519081016040528092919081815260200182805461094a9061515d565b80156109975780601f1061096c57610100808354040283529160200191610997565b820191906000526020600020905b81548152906001019060200180831161097a57829003601f168201915b505050505081526020016002820180546109b09061515d565b80601f01602080910402602001604051908101604052809291908181526020018280546109dc9061515d565b8015610a295780601f106109fe57610100808354040283529160200191610a29565b820191906000526020600020905b815481529060010190602001808311610a0c57829003601f168201915b505050505081526020016003820160009054906101000a900473ffffffffffffffffffffffffffffffffffffffff1673ffffffffffffffffffffffffffffffffffffffff1673ffffffffffffffffffffffffffffffffffffffff1681526020016003820160149054906101000a900460ff166001811115610aad57610aac614279565b5b6001811115610abf57610abe614279565b5b81526020016003820160159054906101000a900460ff16151515158152602001600482015481525050905090565b6060600073ffffffffffffffffffffffffffffffffffffffff163373ffffffffffffffffffffffffffffffffffffffff1603610b5e576040517f08c379a0000000000000000000000000000000000000000000000000000000008152600401610b559061510e565b60405180910390fd5b6069805480602002602001604051908101604052809291908181526020016000905b82821015610c73578382906000526020600020906004020160405180608001604052908160008201548152602001600182018054610bbd9061515d565b80601f0160208091040260200160405190810160405280929190818152602001828054610be99061515d565b8015610c365780601f10610c0b57610100808354040283529160200191610c36565b820191906000526020600020905b815481529060010190602001808311610c1957829003601f168201915b505050505081526020016002820160009054906101000a900460ff1615151515815260200160038201548152505081526020019060010190610b80565b50505050905090565b610c84613900565b610c8e600061397e565b565b60008060019054906101000a900460ff16159050808015610cc15750600160008054906101000a900460ff1660ff16105b80610cee5750610cd030613a44565b158015610ced5750600160008054906101000a900460ff1660ff16145b5b610d2d576040517f08c379a0000000000000000000000000000000000000000000000000000000008152600401610d2490615200565b60405180910390fd5b60016000806101000a81548160ff021916908360ff1602179055508015610d6a576001600060016101000a81548160ff0219169083151502179055505b610d72613a67565b610d7c6065613ac0565b6040518060e00160405280610d916065613ad6565b81526020016040518060400160405280600581526020017f41646d696e00000000000000000000000000000000000000000000000000000081525081526020016040518060400160405280601281526020017f6d727061756c393240676d61696c2e636f6d000000000000000000000000000081525081526020013373ffffffffffffffffffffffffffffffffffffffff16815260200160006001811115610e3c57610e3b614279565b5b815260200160011515815260200142815250606a60003373ffffffffffffffffffffffffffffffffffffffff1673ffffffffffffffffffffffffffffffffffffffff168152602001908152602001600020600082015181600001556020820151816001019081610eac91906153cc565b506040820151816002019081610ec291906153cc565b5060608201518160030160006101000a81548173ffffffffffffffffffffffffffffffffffffffff021916908373ffffffffffffffffffffffffffffffffffffffff16021790555060808201518160030160146101000a81548160ff02191690836001811115610f3557610f34614279565b5b021790555060a08201518160030160156101000a81548160ff02191690831515021790555060c08201518160040155905050610f716067613ac0565b60696040518060800160405280610f886067613ad6565b81526020016040518060400160405280600781526020017f4d65646963616c00000000000000000000000000000000000000000000000000815250815260200160011515815260200142815250908060018154018082558091505060019003906000526020600020906004020160009091909190915060008201518160000155602082015181600101908161101d91906153cc565b5060408201518160020160006101000a81548160ff0219169083151502179055506060820151816003015550506110546067613ac0565b6069604051806080016040528061106b6067613ad6565b81526020016040518060400160405280600381526020017f4e474f0000000000000000000000000000000000000000000000000000000000815250815260200160011515815260200142815250908060018154018082558091505060019003906000526020600020906004020160009091909190915060008201518160000155602082015181600101908161110091906153cc565b5060408201518160020160006101000a81548160ff0219169083151502179055506060820151816003015550506111376067613ac0565b6069604051806080016040528061114e6067613ad6565b81526020016040518060400160405280600881526020017f427573696e65737300000000000000000000000000000000000000000000000081525081526020016001151581526020014281525090806001815401808255809150506001900390600052602060002090600402016000909190919091506000820151816000015560208201518160010190816111e391906153cc565b5060408201518160020160006101000a81548160ff02191690831515021790555060608201518160030155505061121a6067613ac0565b606960405180608001604052806112316067613ad6565b81526020016040518060400160405280600881526020017f506572736f6e616c00000000000000000000000000000000000000000000000081525081526020016001151581526020014281525090806001815401808255809150506001900390600052602060002090600402016000909190919091506000820151816000015560208201518160010190816112c691906153cc565b5060408201518160020160006101000a81548160ff0219169083151502179055506060820151816003015550506112fd6067613ac0565b606960405180608001604052806113146067613ad6565b81526020016040518060400160405280600681526020017f4f7468657273000000000000000000000000000000000000000000000000000081525081526020016001151581526020014281525090806001815401808255809150506001900390600052602060002090600402016000909190919091506000820151816000015560208201518160010190816113a991906153cc565b5060408201518160020160006101000a81548160ff021916908315150217905550606082015181600301555050801561142f5760008060016101000a81548160ff0219169083151502179055507f7f26b83ff96e1f2b6a682f133852f6798a09c465da95921460cefb3847402498600160405161142691906154e6565b60405180910390a15b50565b6060600073ffffffffffffffffffffffffffffffffffffffff163373ffffffffffffffffffffffffffffffffffffffff16036114a3576040517f08c379a000000000000000000000000000000000000000000000000000000000815260040161149a9061510e565b60405180910390fd5b606b805480602002602001604051908101604052809291908181526020016000905b8282101561186357838290600052602060002090600c0201604051806101c0016040529081600082015481526020016001820180546115039061515d565b80601f016020809104026020016040519081016040528092919081815260200182805461152f9061515d565b801561157c5780601f106115515761010080835404028352916020019161157c565b820191906000526020600020905b81548152906001019060200180831161155f57829003601f168201915b505050505081526020016002820180546115959061515d565b80601f01602080910402602001604051908101604052809291908181526020018280546115c19061515d565b801561160e5780601f106115e35761010080835404028352916020019161160e565b820191906000526020600020905b8154815290600101906020018083116115f157829003601f168201915b505050505081526020016003820180546116279061515d565b80601f01602080910402602001604051908101604052809291908181526020018280546116539061515d565b80156116a05780601f10611675576101008083540402835291602001916116a0565b820191906000526020600020905b81548152906001019060200180831161168357829003601f168201915b505050505081526020016004820180546116b99061515d565b80601f01602080910402602001604051908101604052809291908181526020018280546116e59061515d565b80156117325780601f1061170757610100808354040283529160200191611732565b820191906000526020600020905b81548152906001019060200180831161171557829003601f168201915b505050505081526020016005820154815260200160068201548152602001600782015481526020016008820160009054906101000a900473ffffffffffffffffffffffffffffffffffffffff1673ffffffffffffffffffffffffffffffffffffffff1673ffffffffffffffffffffffffffffffffffffffff1681526020016008820160149054906101000a900460ff1660018111156117d4576117d3614279565b5b60018111156117e6576117e5614279565b5b81526020016008820160159054906101000a900460ff16600281111561180f5761180e614279565b5b600281111561182157611820614279565b5b815260200160098201548152602001600a820160009054906101000a900460ff16151515158152602001600b82015481525050815260200190600101906114c5565b50505050905090565b60008073ffffffffffffffffffffffffffffffffffffffff163373ffffffffffffffffffffffffffffffffffffffff16036118dc576040517f08c379a00000000000000000000000000000000000000000000000000000000081526004016118d39061510e565b60405180910390fd5b8484848460008484905011611926576040517f08c379a000000000000000000000000000000000000000000000000000000000815260040161191d9061554d565b60405180910390fd5b6000828290501161196c576040517f08c379a0000000000000000000000000000000000000000000000000000000008152600401611963906155b9565b60405180910390fd5b6119766065613ac0565b6040518060e0016040528061198b6065613ad6565b81526020018a8a8080601f016020809104026020016040519081016040528093929190818152602001838380828437600081840152601f19601f82011690508083019250505050505050815260200188888080601f016020809104026020016040519081016040528093929190818152602001838380828437600081840152601f19601f8201169050808301925050505050505081526020013373ffffffffffffffffffffffffffffffffffffffff168152602001600180811115611a5357611a52614279565b5b815260200160011515815260200142815250606a60003373ffffffffffffffffffffffffffffffffffffffff1673ffffffffffffffffffffffffffffffffffffffff168152602001908152602001600020600082015181600001556020820151816001019081611ac391906153cc565b506040820151816002019081611ad991906153cc565b5060608201518160030160006101000a81548173ffffffffffffffffffffffffffffffffffffffff021916908373ffffffffffffffffffffffffffffffffffffffff16021790555060808201518160030160146101000a81548160ff02191690836001811115611b4c57611b4b614279565b5b021790555060a08201518160030160156101000a81548160ff02191690831515021790555060c08201518160040155905050611b886065613ad6565b945050505050949350505050565b611b9e613ece565b600073ffffffffffffffffffffffffffffffffffffffff163373ffffffffffffffffffffffffffffffffffffffff1603611c0d576040517f08c379a0000000000000000000000000000000000000000000000000000000008152600401611c049061510e565b60405180910390fd5b600060708484604051611c21929190615609565b908152602001604051809103902054905060008111611c75576040517f08c379a0000000000000000000000000000000000000000000000000000000008152600401611c6c9061566e565b60405180910390fd5b6000611c808261301c565b9050809250505092915050565b6000603360009054906101000a900473ffffffffffffffffffffffffffffffffffffffff16905090565b60008073ffffffffffffffffffffffffffffffffffffffff163373ffffffffffffffffffffffffffffffffffffffff1603611d27576040517f08c379a0000000000000000000000000000000000000000000000000000000008152600401611d1e9061510e565b60405180910390fd5b6000611d31610843565b9050600180811115611d4657611d45614279565b5b81608001516001811115611d5d57611d5c614279565b5b14611d9d576040517f08c379a0000000000000000000000000000000000000000000000000000000008152600401611d94906156da565b60405180910390fd5b662386f26fc10000341015611de7576040517f08c379a0000000000000000000000000000000000000000000000000000000008152600401611dde90615746565b60405180910390fd5b611df16066613ac0565b606b604051806101c00160405280611e096066613ad6565b8152602001856000015181526020018560200151815260200185604001518152602001856080015181526020018560a001518152602001600081526020018560c0015181526020013373ffffffffffffffffffffffffffffffffffffffff16815260200160006001811115611e8157611e80614279565b5b815260200160006002811115611e9a57611e99614279565b5b8152602001856060015181526020016001151581526020014281525090806001815401808255809150506001900390600052602060002090600c0201600090919091909150600082015181600001556020820151816001019081611efe91906153cc565b506040820151816002019081611f1491906153cc565b506060820151816003019081611f2a91906153cc565b506080820151816004019081611f4091906153cc565b5060a0820151816005015560c0820151816006015560e082015181600701556101008201518160080160006101000a81548173ffffffffffffffffffffffffffffffffffffffff021916908373ffffffffffffffffffffffffffffffffffffffff1602179055506101208201518160080160146101000a81548160ff02191690836001811115611fd357611fd2614279565b5b02179055506101408201518160080160156101000a81548160ff0219169083600281111561200457612003614279565b5b0217905550610160820151816009015561018082015181600a0160006101000a81548160ff0219169083151502179055506101a082015181600b0155505060005b8360e00151518110156120ef57606c60006120606066613ad6565b815260200190815260200160002060405180602001604052808660e0015184815181106120905761208f61501c565b5b6020026020010151600001518152509080600181540180825580915050600190039060005260206000200160009091909190915060008201518160000190816120d991906153cc565b50505080806120e79061507a565b915050612045565b506120fa6066613ad6565b7fbc0a5edd152fa5b886dcae82c5c109d113708653b4b9c0224549ccdf715af94e60405160405180910390a26121306066613ad6565b607084602001516040516121449190615797565b908152602001604051809103902081905550662386f26fc100006068600082825461216f91906157ae565b925050819055506121806066613ad6565b915050919050565b612190613900565b8060005b606b805490508110156122485781606b82815481106121b6576121b561501c565b5b90600052602060002090600c0201600001540361223557606b81815481106121e1576121e061501c565b5b90600052602060002090600c0201600701544211612234576040517f08c379a000000000000000000000000000000000000000000000000000000000815260040161222b9061582e565b60405180910390fd5b5b80806122409061507a565b915050612194565b5060005b606b8054905081101561248c5782606b828154811061226e5761226d61501c565b5b90600052602060002090600c02016000015403612479576001606b828154811061229b5761229a61501c565b5b90600052602060002090600c020160080160146101000a81548160ff021916908360018111156122ce576122cd614279565b5b0217905550606b81815481106122e7576122e661501c565b5b90600052602060002090600c020160080160009054906101000a900473ffffffffffffffffffffffffffffffffffffffff1673ffffffffffffffffffffffffffffffffffffffff166108fc606b83815481106123465761234561501c565b5b90600052602060002090600c0201600601549081150290604051600060405180830381858888f19350505050158015612383573d6000803e3d6000fd5b50827fbdef6a2e3aa892961a2dab48272f72f2bc1c7121eb1c0ed7e4a58e081c1e4be060405160405180910390a2606b81815481106123c5576123c461501c565b5b90600052602060002090600c020160050154606b82815481106123eb576123ea61501c565b5b90600052602060002090600c0201600601541115612478576000606b82815481106124195761241861501c565b5b90600052602060002090600c020160050154606b838154811061243f5761243e61501c565b5b90600052602060002090600c02016006015461245b919061584e565b9050806068600082825461246f91906157ae565b92505081905550505b5b80806124849061507a565b91505061224c565b505050565b600061249b613900565b606854905090565b600073ffffffffffffffffffffffffffffffffffffffff163373ffffffffffffffffffffffffffffffffffffffff1603612512576040517f08c379a00000000000000000000000000000000000000000000000000000000081526004016125099061510e565b60405180910390fd5b8060005b606b805490508110156126d85781606b82815481106125385761253761501c565b5b90600052602060002090600c020160000154036126c5576000600181111561256357612562614279565b5b606b82815481106125775761257661501c565b5b90600052602060002090600c020160080160149054906101000a900460ff1660018111156125a8576125a7614279565b5b146125e8576040517f08c379a00000000000000000000000000000000000000000000000000000000081526004016125df906158ce565b60405180910390fd5b600160028111156125fc576125fb614279565b5b606b82815481106126105761260f61501c565b5b90600052602060002090600c020160080160159054906101000a900460ff16600281111561264157612640614279565b5b14612681576040517f08c379a000000000000000000000000000000000000000000000000000000000815260040161267890615960565b60405180910390fd5b600034116126c4576040517f08c379a00000000000000000000000000000000000000000000000000000000081526004016126bb906159cc565b60405180910390fd5b5b80806126d09061507a565b915050612516565b5060005b606b805490508110156129695782606b82815481106126fe576126fd61501c565b5b90600052602060002090600c020160000154036129565734606b828154811061272a5761272961501c565b5b90600052602060002090600c0201600601600082825461274a91906157ae565b92505081905550606b81815481106127655761276461501c565b5b90600052602060002090600c020160050154606b828154811061278b5761278a61501c565b5b90600052602060002090600c02016006015410612943576001606b82815481106127b8576127b761501c565b5b90600052602060002090600c020160080160146101000a81548160ff021916908360018111156127eb576127ea614279565b5b0217905550606b81815481106128045761280361501c565b5b90600052602060002090600c020160080160009054906101000a900473ffffffffffffffffffffffffffffffffffffffff1673ffffffffffffffffffffffffffffffffffffffff166108fc606b83815481106128635761286261501c565b5b90600052602060002090600c0201600501549081150290604051600060405180830381858888f193505050501580156128a0573d6000803e3d6000fd5b50827fbdef6a2e3aa892961a2dab48272f72f2bc1c7121eb1c0ed7e4a58e081c1e4be060405160405180910390a26000606b82815481106128e4576128e361501c565b5b90600052602060002090600c020160050154606b838154811061290a5761290961501c565b5b90600052602060002090600c020160060154612926919061584e565b9050806068600082825461293a91906157ae565b92505081905550505b61294c83613ae4565b61295583613d41565b5b80806129619061507a565b9150506126dc565b505050565b612976613e67565b61297e613900565b8173ffffffffffffffffffffffffffffffffffffffff168273ffffffffffffffffffffffffffffffffffffffff16146129ec576040517f08c379a00000000000000000000000000000000000000000000000000000000081526004016129e39061510e565b60405180910390fd5b606a60008373ffffffffffffffffffffffffffffffffffffffff1673ffffffffffffffffffffffffffffffffffffffff1681526020019081526020016000206040518060e001604052908160008201548152602001600182018054612a509061515d565b80601f0160208091040260200160405190810160405280929190818152602001828054612a7c9061515d565b8015612ac95780601f10612a9e57610100808354040283529160200191612ac9565b820191906000526020600020905b815481529060010190602001808311612aac57829003601f168201915b50505050508152602001600282018054612ae29061515d565b80601f0160208091040260200160405190810160405280929190818152602001828054612b0e9061515d565b8015612b5b5780601f10612b3057610100808354040283529160200191612b5b565b820191906000526020600020905b815481529060010190602001808311612b3e57829003601f168201915b505050505081526020016003820160009054906101000a900473ffffffffffffffffffffffffffffffffffffffff1673ffffffffffffffffffffffffffffffffffffffff1673ffffffffffffffffffffffffffffffffffffffff1681526020016003820160149054906101000a900460ff166001811115612bdf57612bde614279565b5b6001811115612bf157612bf0614279565b5b81526020016003820160159054906101000a900460ff161515151581526020016004820154815250509050919050565b612c29613900565b60005b606980549050811015612cb7578160698281548110612c4e57612c4d61501c565b5b90600052602060002090600402016000015403612ca457600060698281548110612c7b57612c7a61501c565b5b906000526020600020906004020160020160006101000a81548160ff0219169083151502179055505b8080612caf9061507a565b915050612c2c565b5050565b6060600073ffffffffffffffffffffffffffffffffffffffff163373ffffffffffffffffffffffffffffffffffffffff1603612d2c576040517f08c379a0000000000000000000000000000000000000000000000000000000008152600401612d239061510e565b60405180910390fd5b606f6000838152602001908152602001600020805480602002602001604051908101604052809291908181526020016000905b82821015612df157838290600052602060002090600202016040518060400160405290816000820160009054906101000a900473ffffffffffffffffffffffffffffffffffffffff1673ffffffffffffffffffffffffffffffffffffffff1673ffffffffffffffffffffffffffffffffffffffff16815260200160018201548152505081526020019060010190612d5f565b505050509050919050565b612e04613900565b818160008282905011612e4c576040517f08c379a0000000000000000000000000000000000000000000000000000000008152600401612e4390615a38565b60405180910390fd5b60005b606980549050811015612f23578282604051602001612e6f929190615609565b6040516020818303038152906040528051906020012060698281548110612e9957612e9861501c565b5b9060005260206000209060040201600101604051602001612eba9190615adb565b6040516020818303038152906040528051906020012003612f10576040517f08c379a0000000000000000000000000000000000000000000000000000000008152600401612f0790615b3e565b60405180910390fd5b8080612f1b9061507a565b915050612e4f565b50612f2e6067613ac0565b60696040518060800160405280612f456067613ad6565b815260200186868080601f016020809104026020016040519081016040528093929190818152602001838380828437600081840152601f19601f820116905080830192505050505050508152602001600115158152602001428152509080600181540180825580915050600190039060005260206000209060040201600090919091909150600082015181600001556020820151816001019081612fe991906153cc565b5060408201518160020160006101000a81548160ff02191690831515021790555060608201518160030155505050505050565b613024613ece565b600073ffffffffffffffffffffffffffffffffffffffff163373ffffffffffffffffffffffffffffffffffffffff1603613093576040517f08c379a000000000000000000000000000000000000000000000000000000000815260040161308a9061510e565b60405180910390fd5b6000604051806101c00160405280600081526020016040518060200160405280600081525081526020016040518060200160405280600081525081526020016040518060200160405280600081525081526020016040518060200160405280600081525081526020016000815260200160008152602001600081526020013073ffffffffffffffffffffffffffffffffffffffff1681526020016001808111156131405761313f614279565b5b815260200160028081111561315857613157614279565b5b81526020016000815260200160001515815260200142815250905060005b606b805490508110156136cc5783606b82815481106131985761319761501c565b5b90600052602060002090600c020160000154036136b957604051806101c00160405280606b83815481106131cf576131ce61501c565b5b90600052602060002090600c0201600001548152602001606b83815481106131fa576131f961501c565b5b90600052602060002090600c020160010180546132169061515d565b80601f01602080910402602001604051908101604052809291908181526020018280546132429061515d565b801561328f5780601f106132645761010080835404028352916020019161328f565b820191906000526020600020905b81548152906001019060200180831161327257829003601f168201915b50505050508152602001606b83815481106132ad576132ac61501c565b5b90600052602060002090600c020160020180546132c99061515d565b80601f01602080910402602001604051908101604052809291908181526020018280546132f59061515d565b80156133425780601f1061331757610100808354040283529160200191613342565b820191906000526020600020905b81548152906001019060200180831161332557829003601f168201915b50505050508152602001606b83815481106133605761335f61501c565b5b90600052602060002090600c0201600301805461337c9061515d565b80601f01602080910402602001604051908101604052809291908181526020018280546133a89061515d565b80156133f55780601f106133ca576101008083540402835291602001916133f5565b820191906000526020600020905b8154815290600101906020018083116133d857829003601f168201915b50505050508152602001606b83815481106134135761341261501c565b5b90600052602060002090600c0201600401805461342f9061515d565b80601f016020809104026020016040519081016040528092919081815260200182805461345b9061515d565b80156134a85780601f1061347d576101008083540402835291602001916134a8565b820191906000526020600020905b81548152906001019060200180831161348b57829003601f168201915b50505050508152602001606b83815481106134c6576134c561501c565b5b90600052602060002090600c0201600501548152602001606b83815481106134f1576134f061501c565b5b90600052602060002090600c0201600601548152602001606b838154811061351c5761351b61501c565b5b90600052602060002090600c0201600701548152602001606b83815481106135475761354661501c565b5b90600052602060002090600c020160080160009054906101000a900473ffffffffffffffffffffffffffffffffffffffff1673ffffffffffffffffffffffffffffffffffffffff168152602001606b83815481106135a8576135a761501c565b5b90600052602060002090600c020160080160149054906101000a900460ff1660018111156135d9576135d8614279565b5b8152602001606b83815481106135f2576135f161501c565b5b90600052602060002090600c020160080160159054906101000a900460ff16600281111561362357613622614279565b5b8152602001606b838154811061363c5761363b61501c565b5b90600052602060002090600c0201600901548152602001606b83815481106136675761366661501c565b5b90600052602060002090600c0201600a0160009054906101000a900460ff1615158152602001606b83815481106136a1576136a061501c565b5b90600052602060002090600c0201600b015481525091505b80806136c49061507a565b915050613176565b5080915050919050565b6136de613900565b60005b606b805490508110156138795781606b82815481106137035761370261501c565b5b90600052602060002090600c02016000015403613866576001606b82815481106137305761372f61501c565b5b90600052602060002090600c020160080160156101000a81548160ff0219169083600281111561376357613762614279565b5b0217905550606e6000606b83815481106137805761377f61501c565b5b90600052602060002090600c020160080160009054906101000a900473ffffffffffffffffffffffffffffffffffffffff1673ffffffffffffffffffffffffffffffffffffffff1673ffffffffffffffffffffffffffffffffffffffff168152602001908152602001600020606b8281548110613800576137ff61501c565b5b90600052602060002090600c0201600001549080600181540180825580915050600190039060005260206000200160009091909190915055817f3aa476b7499359259e68e236e4ba85f83ff093e3b6341e6a3f6f295d9cd6887760405160405180910390a25b80806138719061507a565b9150506136e1565b5050565b613885613900565b600073ffffffffffffffffffffffffffffffffffffffff168173ffffffffffffffffffffffffffffffffffffffff16036138f4576040517f08c379a00000000000000000000000000000000000000000000000000000000081526004016138eb90615bd0565b60405180910390fd5b6138fd8161397e565b50565b613908613dfe565b73ffffffffffffffffffffffffffffffffffffffff16613926611c8d565b73ffffffffffffffffffffffffffffffffffffffff161461397c576040517f08c379a000000000000000000000000000000000000000000000000000000000815260040161397390615c3c565b60405180910390fd5b565b6000603360009054906101000a900473ffffffffffffffffffffffffffffffffffffffff16905081603360006101000a81548173ffffffffffffffffffffffffffffffffffffffff021916908373ffffffffffffffffffffffffffffffffffffffff1602179055508173ffffffffffffffffffffffffffffffffffffffff168173ffffffffffffffffffffffffffffffffffffffff167f8be0079c531659141344cd1fd0a4f28419497f9722a3daafe3b4186f6b6457e060405160405180910390a35050565b6000808273ffffffffffffffffffffffffffffffffffffffff163b119050919050565b600060019054906101000a900460ff16613ab6576040517f08c379a0000000000000000000000000000000000000000000000000000000008152600401613aad90615cce565b60405180910390fd5b613abe613e06565b565b6001816000016000828254019250508190555050565b600081600001549050919050565b6000805b606d60003373ffffffffffffffffffffffffffffffffffffffff1673ffffffffffffffffffffffffffffffffffffffff16815260200190815260200160002080549050811015613c935782606d60003373ffffffffffffffffffffffffffffffffffffffff1673ffffffffffffffffffffffffffffffffffffffff1681526020019081526020016000208281548110613b8457613b8361501c565b5b90600052602060002090600302016000015403613c805734606d60003373ffffffffffffffffffffffffffffffffffffffff1673ffffffffffffffffffffffffffffffffffffffff1681526020019081526020016000208281548110613bed57613bec61501c565b5b90600052602060002090600302016001016000828254613c0d91906157ae565b9250508190555042606d60003373ffffffffffffffffffffffffffffffffffffffff1673ffffffffffffffffffffffffffffffffffffffff1681526020019081526020016000208281548110613c6657613c6561501c565b5b906000526020600020906003020160020181905550600191505b8080613c8b9061507a565b915050613ae8565b5080613d3d57606d60003373ffffffffffffffffffffffffffffffffffffffff1673ffffffffffffffffffffffffffffffffffffffff168152602001908152602001600020604051806060016040528084815260200134815260200142815250908060018154018082558091505060019003906000526020600020906003020160009091909190915060008201518160000155602082015181600101556040820151816002015550505b5050565b606f600082815260200190815260200160002060405180604001604052803373ffffffffffffffffffffffffffffffffffffffff16815260200134815250908060018154018082558091505060019003906000526020600020906002020160009091909190915060008201518160000160006101000a81548173ffffffffffffffffffffffffffffffffffffffff021916908373ffffffffffffffffffffffffffffffffffffffff16021790555060208201518160010155505050565b600033905090565b600060019054906101000a900460ff16613e55576040517f08c379a0000000000000000000000000000000000000000000000000000000008152600401613e4c90615cce565b60405180910390fd5b613e65613e60613dfe565b61397e565b565b6040518060e00160405280600081526020016060815260200160608152602001600073ffffffffffffffffffffffffffffffffffffffff16815260200160006001811115613eb857613eb7614279565b5b8152602001600015158152602001600081525090565b604051806101c001604052806000815260200160608152602001606081526020016060815260200160608152602001600081526020016000815260200160008152602001600073ffffffffffffffffffffffffffffffffffffffff16815260200160006001811115613f4357613f42614279565b5b815260200160006002811115613f5c57613f5b614279565b5b815260200160008152602001600015158152602001600081525090565b6000604051905090565b600080fd5b600080fd5b6000819050919050565b613fa081613f8d565b8114613fab57600080fd5b50565b600081359050613fbd81613f97565b92915050565b600060208284031215613fd957613fd8613f83565b5b6000613fe784828501613fae565b91505092915050565b600081519050919050565b600082825260208201905092915050565b60005b8381101561402a57808201518184015260208101905061400f565b60008484015250505050565b6000601f19601f8301169050919050565b600061405282613ff0565b61405c8185613ffb565b935061406c81856020860161400c565b61407581614036565b840191505092915050565b6000602082019050818103600083015261409a8184614047565b905092915050565b600081519050919050565b600082825260208201905092915050565b6000819050602082019050919050565b6140d781613f8d565b82525050565b6060820160008201516140f360008501826140ce565b50602082015161410660208501826140ce565b50604082015161411960408501826140ce565b50505050565b600061412b83836140dd565b60608301905092915050565b6000602082019050919050565b600061414f826140a2565b61415981856140ad565b9350614164836140be565b8060005b8381101561419557815161417c888261411f565b975061418783614137565b925050600181019050614168565b5085935050505092915050565b600060208201905081810360008301526141bc8184614144565b905092915050565b6141cd81613f8d565b82525050565b60006020820190506141e860008301846141c4565b92915050565b600082825260208201905092915050565b600061420a82613ff0565b61421481856141ee565b935061422481856020860161400c565b61422d81614036565b840191505092915050565b600073ffffffffffffffffffffffffffffffffffffffff82169050919050565b600061426382614238565b9050919050565b61427381614258565b82525050565b7f4e487b7100000000000000000000000000000000000000000000000000000000600052602160045260246000fd5b600281106142b9576142b8614279565b5b50565b60008190506142ca826142a8565b919050565b60006142da826142bc565b9050919050565b6142ea816142cf565b82525050565b60008115159050919050565b614305816142f0565b82525050565b600060e08301600083015161432360008601826140ce565b506020830151848203602086015261433b82826141ff565b9150506040830151848203604086015261435582826141ff565b915050606083015161436a606086018261426a565b50608083015161437d60808601826142e1565b5060a083015161439060a08601826142fc565b5060c08301516143a360c08601826140ce565b508091505092915050565b600060208201905081810360008301526143c8818461430b565b905092915050565b600081519050919050565b600082825260208201905092915050565b6000819050602082019050919050565b600060808301600083015161441460008601826140ce565b506020830151848203602086015261442c82826141ff565b915050604083015161444160408601826142fc565b50606083015161445460608601826140ce565b508091505092915050565b600061446b83836143fc565b905092915050565b6000602082019050919050565b600061448b826143d0565b61449581856143db565b9350836020820285016144a7856143ec565b8060005b858110156144e357848403895281516144c4858261445f565b94506144cf83614473565b925060208a019950506001810190506144ab565b50829750879550505050505092915050565b6000602082019050818103600083015261450f8184614480565b905092915050565b600081519050919050565b600082825260208201905092915050565b6000819050602082019050919050565b600061454e82614238565b9050919050565b61455e81614543565b82525050565b6002811061457557614574614279565b5b50565b600081905061458682614564565b919050565b600061459682614578565b9050919050565b6145a68161458b565b82525050565b600381106145bd576145bc614279565b5b50565b60008190506145ce826145ac565b919050565b60006145de826145c0565b9050919050565b6145ee816145d3565b82525050565b60006101c08301600083015161460d60008601826140ce565b506020830151848203602086015261462582826141ff565b9150506040830151848203604086015261463f82826141ff565b9150506060830151848203606086015261465982826141ff565b9150506080830151848203608086015261467382826141ff565b91505060a083015161468860a08601826140ce565b5060c083015161469b60c08601826140ce565b5060e08301516146ae60e08601826140ce565b506101008301516146c3610100860182614555565b506101208301516146d861012086018261459d565b506101408301516146ed6101408601826145e5565b506101608301516147026101608601826140ce565b506101808301516147176101808601826142fc565b506101a083015161472c6101a08601826140ce565b508091505092915050565b600061474383836145f4565b905092915050565b6000602082019050919050565b600061476382614517565b61476d8185614522565b93508360208202850161477f85614533565b8060005b858110156147bb578484038952815161479c8582614737565b94506147a78361474b565b925060208a01995050600181019050614783565b50829750879550505050505092915050565b600060208201905081810360008301526147e78184614758565b905092915050565b600080fd5b600080fd5b600080fd5b60008083601f840112614814576148136147ef565b5b8235905067ffffffffffffffff811115614831576148306147f4565b5b60208301915083600182028301111561484d5761484c6147f9565b5b9250929050565b6000806000806040858703121561486e5761486d613f83565b5b600085013567ffffffffffffffff81111561488c5761488b613f88565b5b614898878288016147fe565b9450945050602085013567ffffffffffffffff8111156148bb576148ba613f88565b5b6148c7878288016147fe565b925092505092959194509250565b600080602083850312156148ec576148eb613f83565b5b600083013567ffffffffffffffff81111561490a57614909613f88565b5b614916858286016147fe565b92509250509250929050565b60006101c08301600083015161493b60008601826140ce565b506020830151848203602086015261495382826141ff565b9150506040830151848203604086015261496d82826141ff565b9150506060830151848203606086015261498782826141ff565b915050608083015184820360808601526149a182826141ff565b91505060a08301516149b660a08601826140ce565b5060c08301516149c960c08601826140ce565b5060e08301516149dc60e08601826140ce565b506101008301516149f1610100860182614555565b50610120830151614a0661012086018261459d565b50610140830151614a1b6101408601826145e5565b50610160830151614a306101608601826140ce565b50610180830151614a456101808601826142fc565b506101a0830151614a5a6101a08601826140ce565b508091505092915050565b60006020820190508181036000830152614a7f8184614922565b905092915050565b614a9081614258565b82525050565b6000602082019050614aab6000830184614a87565b92915050565b600080fd5b7f4e487b7100000000000000000000000000000000000000000000000000000000600052604160045260246000fd5b614aee82614036565b810181811067ffffffffffffffff82111715614b0d57614b0c614ab6565b5b80604052505050565b6000614b20613f79565b9050614b2c8282614ae5565b919050565b600080fd5b600080fd5b600067ffffffffffffffff821115614b5657614b55614ab6565b5b614b5f82614036565b9050602081019050919050565b82818337600083830152505050565b6000614b8e614b8984614b3b565b614b16565b905082815260208101848484011115614baa57614ba9614b36565b5b614bb5848285614b6c565b509392505050565b600082601f830112614bd257614bd16147ef565b5b8135614be2848260208601614b7b565b91505092915050565b600067ffffffffffffffff821115614c0657614c05614ab6565b5b602082029050602081019050919050565b600060208284031215614c2d57614c2c614ab1565b5b614c376020614b16565b9050600082013567ffffffffffffffff811115614c5757614c56614b31565b5b614c6384828501614bbd565b60008301525092915050565b6000614c82614c7d84614beb565b614b16565b90508083825260208201905060208402830185811115614ca557614ca46147f9565b5b835b81811015614cec57803567ffffffffffffffff811115614cca57614cc96147ef565b5b808601614cd78982614c17565b85526020850194505050602081019050614ca7565b5050509392505050565b600082601f830112614d0b57614d0a6147ef565b5b8135614d1b848260208601614c6f565b91505092915050565b60006101008284031215614d3b57614d3a614ab1565b5b614d46610100614b16565b9050600082013567ffffffffffffffff811115614d6657614d65614b31565b5b614d7284828501614bbd565b600083015250602082013567ffffffffffffffff811115614d9657614d95614b31565b5b614da284828501614bbd565b602083015250604082013567ffffffffffffffff811115614dc657614dc5614b31565b5b614dd284828501614bbd565b6040830152506060614de684828501613fae565b606083015250608082013567ffffffffffffffff811115614e0a57614e09614b31565b5b614e1684828501614bbd565b60808301525060a0614e2a84828501613fae565b60a08301525060c0614e3e84828501613fae565b60c08301525060e082013567ffffffffffffffff811115614e6257614e61614b31565b5b614e6e84828501614cf6565b60e08301525092915050565b600060208284031215614e9057614e8f613f83565b5b600082013567ffffffffffffffff811115614eae57614ead613f88565b5b614eba84828501614d24565b91505092915050565b614ecc81614258565b8114614ed757600080fd5b50565b600081359050614ee981614ec3565b92915050565b600060208284031215614f0557614f04613f83565b5b6000614f1384828501614eda565b91505092915050565b600081519050919050565b600082825260208201905092915050565b6000819050602082019050919050565b604082016000820151614f5e6000850182614555565b506020820151614f7160208501826140ce565b50505050565b6000614f838383614f48565b60408301905092915050565b6000602082019050919050565b6000614fa782614f1c565b614fb18185614f27565b9350614fbc83614f38565b8060005b83811015614fed578151614fd48882614f77565b9750614fdf83614f8f565b925050600181019050614fc0565b5085935050505092915050565b600060208201905081810360008301526150148184614f9c565b905092915050565b7f4e487b7100000000000000000000000000000000000000000000000000000000600052603260045260246000fd5b7f4e487b7100000000000000000000000000000000000000000000000000000000600052601160045260246000fd5b600061508582613f8d565b91507fffffffffffffffffffffffffffffffffffffffffffffffffffffffffffffffff82036150b7576150b661504b565b5b600182019050919050565b7f4e6f7420612076616c6964206164647265737321000000000000000000000000600082015250565b60006150f8601483613ffb565b9150615103826150c2565b602082019050919050565b60006020820190508181036000830152615127816150eb565b9050919050565b7f4e487b7100000000000000000000000000000000000000000000000000000000600052602260045260246000fd5b6000600282049050600182168061517557607f821691505b6020821081036151885761518761512e565b5b50919050565b7f496e697469616c697a61626c653a20636f6e747261637420697320616c72656160008201527f647920696e697469616c697a6564000000000000000000000000000000000000602082015250565b60006151ea602e83613ffb565b91506151f58261518e565b604082019050919050565b60006020820190508181036000830152615219816151dd565b9050919050565b60008190508160005260206000209050919050565b60006020601f8301049050919050565b600082821b905092915050565b6000600883026152827fffffffffffffffffffffffffffffffffffffffffffffffffffffffffffffffff82615245565b61528c8683615245565b95508019841693508086168417925050509392505050565b6000819050919050565b60006152c96152c46152bf84613f8d565b6152a4565b613f8d565b9050919050565b6000819050919050565b6152e3836152ae565b6152f76152ef826152d0565b848454615252565b825550505050565b600090565b61530c6152ff565b6153178184846152da565b505050565b5b8181101561533b57615330600082615304565b60018101905061531d565b5050565b601f8211156153805761535181615220565b61535a84615235565b81016020851015615369578190505b61537d61537585615235565b83018261531c565b50505b505050565b600082821c905092915050565b60006153a360001984600802615385565b1980831691505092915050565b60006153bc8383615392565b9150826002028217905092915050565b6153d582613ff0565b67ffffffffffffffff8111156153ee576153ed614ab6565b5b6153f8825461515d565b61540382828561533f565b600060209050601f8311600181146154365760008415615424578287015190505b61542e85826153b0565b865550615496565b601f19841661544486615220565b60005b8281101561546c57848901518255600182019150602085019450602081019050615447565b868310156154895784890151615485601f891682615392565b8355505b6001600288020188555050505b505050505050565b6000819050919050565b600060ff82169050919050565b60006154d06154cb6154c68461549e565b6152a4565b6154a8565b9050919050565b6154e0816154b5565b82525050565b60006020820190506154fb60008301846154d7565b92915050565b7f4e616d6520697320726571756972656421000000000000000000000000000000600082015250565b6000615537601183613ffb565b915061554282615501565b602082019050919050565b600060208201905081810360008301526155668161552a565b9050919050565b7f456d61696c206973207265717569726564210000000000000000000000000000600082015250565b60006155a3601283613ffb565b91506155ae8261556d565b602082019050919050565b600060208201905081810360008301526155d281615596565b9050919050565b600081905092915050565b60006155f083856155d9565b93506155fd838584614b6c565b82840190509392505050565b60006156168284866155e4565b91508190509392505050565b7f43616d706169676e204e6f7420666f756e642100000000000000000000000000600082015250565b6000615658601383613ffb565b915061566382615622565b602082019050919050565b600060208201905081810360008301526156878161564b565b9050919050565b7f55736572206973206e6f742046756e6452616973657221000000000000000000600082015250565b60006156c4601783613ffb565b91506156cf8261568e565b602082019050919050565b600060208201905081810360008301526156f3816156b7565b9050919050565b7f566572696669636174696f6e20636f737420646f6573206e6f74206d65742100600082015250565b6000615730601f83613ffb565b915061573b826156fa565b602082019050919050565b6000602082019050818103600083015261575f81615723565b9050919050565b600061577182613ff0565b61577b81856155d9565b935061578b81856020860161400c565b80840191505092915050565b60006157a38284615766565b915081905092915050565b60006157b982613f8d565b91506157c483613f8d565b92508282019050808211156157dc576157db61504b565b5b92915050565b7f446561646c696e65206e6f74206d657420796574210000000000000000000000600082015250565b6000615818601583613ffb565b9150615823826157e2565b602082019050919050565b600060208201905081810360008301526158478161580b565b9050919050565b600061585982613f8d565b915061586483613f8d565b925082820390508181111561587c5761587b61504b565b5b92915050565b7f43616d706169676e20726561636865642069747320676f616c21000000000000600082015250565b60006158b8601a83613ffb565b91506158c382615882565b602082019050919050565b600060208201905081810360008301526158e7816158ab565b9050919050565b7f43616d706169676e206973206e6f7420417661696c61626c6520666f7220667560008201527f6e64696e67210000000000000000000000000000000000000000000000000000602082015250565b600061594a602683613ffb565b9150615955826158ee565b604082019050919050565b600060208201905081810360008301526159798161593d565b9050919050565b7f416d6f756e742072657175697265642100000000000000000000000000000000600082015250565b60006159b6601083613ffb565b91506159c182615980565b602082019050919050565b600060208201905081810360008301526159e5816159a9565b9050919050565b7f43617465676f7279206e616d6520697320726571756972656421000000000000600082015250565b6000615a22601a83613ffb565b9150615a2d826159ec565b602082019050919050565b60006020820190508181036000830152615a5181615a15565b9050919050565b60008154615a658161515d565b615a6f81866155d9565b94506001821660008114615a8a5760018114615a9f57615ad2565b60ff1983168652811515820286019350615ad2565b615aa885615220565b60005b83811015615aca57815481890152600182019150602081019050615aab565b838801955050505b50505092915050565b6000615ae78284615a58565b915081905092915050565b7f43617465676f7279206e616d6520616c72656164792065786973747321000000600082015250565b6000615b28601d83613ffb565b9150615b3382615af2565b602082019050919050565b60006020820190508181036000830152615b5781615b1b565b9050919050565b7f4f776e61626c653a206e6577206f776e657220697320746865207a65726f206160008201527f6464726573730000000000000000000000000000000000000000000000000000602082015250565b6000615bba602683613ffb565b9150615bc582615b5e565b604082019050919050565b60006020820190508181036000830152615be981615bad565b9050919050565b7f4f776e61626c653a2063616c6c6572206973206e6f7420746865206f776e6572600082015250565b6000615c26602083613ffb565b9150615c3182615bf0565b602082019050919050565b60006020820190508181036000830152615c5581615c19565b9050919050565b7f496e697469616c697a61626c653a20636f6e7472616374206973206e6f74206960008201527f6e697469616c697a696e67000000000000000000000000000000000000000000602082015250565b6000615cb8602b83613ffb565b9150615cc382615c5c565b604082019050919050565b60006020820190508181036000830152615ce781615cab565b905091905056fea2646970667358221220e105f682d994174709bc89faefe16c59d9a7b9967f4a64be4f8ff4fe4d707fce64736f6c63430008110033",
  "linkReferences": {},
  "deployedLinkReferences": {}
}