{
  "_format": "hh-sol-artifact-1",
  "contractName": "CrowdFunding",
  "sourceName": "contracts/CrowdFunding.sol",
  "abi": [
    {
      "anonymous": false,
      "inputs": [
        {
          "indexed": true,
          "internalType": "uint256",
          "name": "id",
          "type": "uint256"
        }
      ],
      "name": "CampaignApproved",
      "type": "event"
    },
    {
      "anonymous": false,
      "inputs": [
        {
          "indexed": true,
          "internalType": "uint256",
          "name": "id",
          "type": "uint256"
        }
      ],
      "name": "CampaignCompleted",
      "type": "event"
    },
    {
      "anonymous": false,
      "inputs": [
        {
          "indexed": true,
          "internalType": "uint256",
          "name": "id",
          "type": "uint256"
        }
      ],
      "name": "CampaignCreated",
      "type": "event"
    },
    {
      "anonymous": false,
      "inputs": [
        {
          "indexed": true,
          "internalType": "uint256",
          "name": "id",
          "type": "uint256"
        }
      ],
      "name": "CampaignRejected",
      "type": "event"
    },
    {
      "anonymous": false,
      "inputs": [
        {
          "indexed": false,
          "internalType": "uint8",
          "name": "version",
          "type": "uint8"
        }
      ],
      "name": "Initialized",
      "type": "event"
    },
    {
      "anonymous": false,
      "inputs": [
        {
          "indexed": true,
          "internalType": "address",
          "name": "previousOwner",
          "type": "address"
        },
        {
          "indexed": true,
          "internalType": "address",
          "name": "newOwner",
          "type": "address"
        }
      ],
      "name": "OwnershipTransferred",
      "type": "event"
    },
    {
      "inputs": [
        {
          "components": [
            {
              "internalType": "string",
              "name": "_name",
              "type": "string"
            },
            {
              "internalType": "string",
              "name": "_description",
              "type": "string"
            },
            {
              "internalType": "uint256",
              "name": "_categoryId",
              "type": "uint256"
            },
            {
              "internalType": "string",
              "name": "_imageHash",
              "type": "string"
            },
            {
              "internalType": "uint256",
              "name": "_goalAmount",
              "type": "uint256"
            },
            {
              "internalType": "uint256",
              "name": "_deadline",
              "type": "uint256"
            },
            {
              "components": [
                {
                  "internalType": "string",
                  "name": "ipfsHash",
                  "type": "string"
                }
              ],
              "internalType": "struct CrowdFunding.File[]",
              "name": "_files",
              "type": "tuple[]"
            }
          ],
          "internalType": "struct CrowdFunding.AddCampaignPayload",
          "name": "data",
          "type": "tuple"
        }
      ],
      "name": "addCampaign",
      "outputs": [
        {
          "internalType": "uint256",
          "name": "",
          "type": "uint256"
        }
      ],
      "stateMutability": "payable",
      "type": "function"
    },
    {
      "inputs": [
        {
          "internalType": "uint256",
          "name": "_id",
          "type": "uint256"
        }
      ],
      "name": "approveCampaign",
      "outputs": [],
      "stateMutability": "nonpayable",
      "type": "function"
    },
    {
      "inputs": [
        {
          "internalType": "uint256",
          "name": "_id",
          "type": "uint256"
        }
      ],
      "name": "completeCampaign",
      "outputs": [],
      "stateMutability": "nonpayable",
      "type": "function"
    },
    {
      "inputs": [
        {
          "internalType": "uint256",
          "name": "_id",
          "type": "uint256"
        }
      ],
      "name": "contribute",
      "outputs": [],
      "stateMutability": "payable",
      "type": "function"
    },
    {
      "inputs": [
        {
          "internalType": "string",
          "name": "_name",
          "type": "string"
        }
      ],
      "name": "createCategory",
      "outputs": [],
      "stateMutability": "nonpayable",
      "type": "function"
    },
    {
      "inputs": [
        {
          "internalType": "string",
          "name": "_name",
          "type": "string"
        },
        {
          "internalType": "string",
          "name": "_email",
          "type": "string"
        }
      ],
      "name": "createUser",
      "outputs": [
        {
          "internalType": "uint256",
          "name": "",
          "type": "uint256"
        }
      ],
      "stateMutability": "nonpayable",
      "type": "function"
    },
    {
      "inputs": [
        {
          "internalType": "uint256",
          "name": "_id",
          "type": "uint256"
        }
      ],
      "name": "deleteCategory",
      "outputs": [],
      "stateMutability": "nonpayable",
      "type": "function"
    },
    {
      "inputs": [],
      "name": "getAllCampaigns",
      "outputs": [
        {
          "components": [
            {
              "internalType": "uint256",
              "name": "id",
              "type": "uint256"
            },
            {
              "internalType": "string",
              "name": "name",
              "type": "string"
            },
            {
              "internalType": "string",
              "name": "description",
              "type": "string"
            },
            {
              "internalType": "string",
              "name": "imageHash",
              "type": "string"
            },
            {
              "internalType": "uint256",
              "name": "goalAmount",
              "type": "uint256"
            },
            {
              "internalType": "uint256",
              "name": "currentBalance",
              "type": "uint256"
            },
            {
              "internalType": "uint256",
              "name": "deadline",
              "type": "uint256"
            },
            {
              "internalType": "address payable",
              "name": "creator",
              "type": "address"
            },
            {
              "internalType": "enum CrowdFunding.CampaignStatus",
              "name": "campaignStatus",
              "type": "uint8"
            },
            {
              "internalType": "enum CrowdFunding.CampaignApprovalStatus",
              "name": "campaignApprovalStatus",
              "type": "uint8"
            },
            {
              "internalType": "uint256",
              "name": "categoryId",
              "type": "uint256"
            },
            {
              "internalType": "bool",
              "name": "status",
              "type": "bool"
            },
            {
              "internalType": "uint256",
              "name": "timestamp",
              "type": "uint256"
            }
          ],
          "internalType": "struct CrowdFunding.Campaign[]",
          "name": "",
          "type": "tuple[]"
        }
      ],
      "stateMutability": "view",
      "type": "function"
    },
    {
      "inputs": [
        {
          "internalType": "uint256",
          "name": "_id",
          "type": "uint256"
        }
      ],
      "name": "getCampaignContributions",
      "outputs": [
        {
          "components": [
            {
              "internalType": "address payable",
              "name": "contributor",
              "type": "address"
            },
            {
              "internalType": "uint256",
              "name": "amount",
              "type": "uint256"
            }
          ],
          "internalType": "struct CrowdFunding.Contribution[]",
          "name": "",
          "type": "tuple[]"
        }
      ],
      "stateMutability": "view",
      "type": "function"
    },
    {
      "inputs": [],
      "name": "getCategories",
      "outputs": [
        {
          "components": [
            {
              "internalType": "uint256",
              "name": "id",
              "type": "uint256"
            },
            {
              "internalType": "string",
              "name": "name",
              "type": "string"
            },
            {
              "internalType": "bool",
              "name": "status",
              "type": "bool"
            },
            {
              "internalType": "uint256",
              "name": "timestamp",
              "type": "uint256"
            }
          ],
          "internalType": "struct CrowdFunding.Category[]",
          "name": "",
          "type": "tuple[]"
        }
      ],
      "stateMutability": "view",
      "type": "function"
    },
    {
      "inputs": [],
      "name": "getContactEmail",
      "outputs": [
        {
          "internalType": "string",
          "name": "",
          "type": "string"
        }
      ],
      "stateMutability": "pure",
      "type": "function"
    },
    {
      "inputs": [],
      "name": "getCurrentUser",
      "outputs": [
        {
          "components": [
            {
              "internalType": "uint256",
              "name": "id",
              "type": "uint256"
            },
            {
              "internalType": "string",
              "name": "name",
              "type": "string"
            },
            {
              "internalType": "string",
              "name": "email",
              "type": "string"
            },
            {
              "internalType": "address",
              "name": "key",
              "type": "address"
            },
            {
              "internalType": "enum CrowdFunding.UserRole",
              "name": "role",
              "type": "uint8"
            },
            {
              "internalType": "bool",
              "name": "status",
              "type": "bool"
            },
            {
              "internalType": "uint256",
              "name": "timestamp",
              "type": "uint256"
            }
          ],
          "internalType": "struct CrowdFunding.User",
          "name": "",
          "type": "tuple"
        }
      ],
      "stateMutability": "view",
      "type": "function"
    },
    {
      "inputs": [],
      "name": "getUserContributions",
      "outputs": [
        {
          "components": [
            {
              "internalType": "uint256",
              "name": "campaignId",
              "type": "uint256"
            },
            {
              "internalType": "uint256",
              "name": "amount",
              "type": "uint256"
            },
            {
              "internalType": "uint256",
              "name": "timestamp",
              "type": "uint256"
            }
          ],
          "internalType": "struct CrowdFunding.UserContribution[]",
          "name": "",
          "type": "tuple[]"
        }
      ],
      "stateMutability": "view",
      "type": "function"
    },
    {
      "inputs": [
        {
          "internalType": "address",
          "name": "_address",
          "type": "address"
        }
      ],
      "name": "getUserDetails",
      "outputs": [
        {
          "components": [
            {
              "internalType": "uint256",
              "name": "id",
              "type": "uint256"
            },
            {
              "internalType": "string",
              "name": "name",
              "type": "string"
            },
            {
              "internalType": "string",
              "name": "email",
              "type": "string"
            },
            {
              "internalType": "address",
              "name": "key",
              "type": "address"
            },
            {
              "internalType": "enum CrowdFunding.UserRole",
              "name": "role",
              "type": "uint8"
            },
            {
              "internalType": "bool",
              "name": "status",
              "type": "bool"
            },
            {
              "internalType": "uint256",
              "name": "timestamp",
              "type": "uint256"
            }
          ],
          "internalType": "struct CrowdFunding.User",
          "name": "",
          "type": "tuple"
        }
      ],
      "stateMutability": "view",
      "type": "function"
    },
    {
      "inputs": [],
      "name": "getVerificationAmount",
      "outputs": [
        {
          "internalType": "uint256",
          "name": "",
          "type": "uint256"
        }
      ],
      "stateMutability": "pure",
      "type": "function"
    },
    {
      "inputs": [],
      "name": "initialize",
      "outputs": [],
      "stateMutability": "nonpayable",
      "type": "function"
    },
    {
      "inputs": [],
      "name": "owner",
      "outputs": [
        {
          "internalType": "address",
          "name": "",
          "type": "address"
        }
      ],
      "stateMutability": "view",
      "type": "function"
    },
    {
      "inputs": [
        {
          "internalType": "uint256",
          "name": "_id",
          "type": "uint256"
        }
      ],
      "name": "rejectCampaign",
      "outputs": [],
      "stateMutability": "nonpayable",
      "type": "function"
    },
    {
      "inputs": [],
      "name": "renounceOwnership",
      "outputs": [],
      "stateMutability": "nonpayable",
      "type": "function"
    },
    {
      "inputs": [
        {
          "internalType": "address",
          "name": "newOwner",
          "type": "address"
        }
      ],
      "name": "transferOwnership",
      "outputs": [],
      "stateMutability": "nonpayable",
      "type": "function"
    }
  ],
  "bytecode": "0x608060405234801561001057600080fd5b50614e5e806100206000396000f3fe60806040526004361061011f5760003560e01c80638da5cb5b116100a0578063ceca737f11610064578063ceca737f14610397578063d3b0c32c146103c0578063dc298682146103fd578063ee4e1b5314610426578063f2fde38b1461044f5761011f565b80638da5cb5b146102ba5780639553f180146102e55780639c21d26e1461030e578063c1cbbca71461033e578063cc3d967b1461035a5761011f565b80634db0412c116100e75780634db0412c146101f9578063715018a6146102245780638129fc1c1461023b57806386cdf6041461025257806387b162b51461027d5761011f565b8063034d09da146101245780631166f2821461014d5780631cf118a11461017857806328443b18146101a357806343ae37c3146101ce575b600080fd5b34801561013057600080fd5b5061014b60048036038101906101469190613398565b610478565b005b34801561015957600080fd5b5061016261054f565b60405161016f9190613455565b60405180910390f35b34801561018457600080fd5b5061018d61058c565b60405161019a9190613577565b60405180910390f35b3480156101af57600080fd5b506101b86106b5565b6040516101c591906135a8565b60405180910390f35b3480156101da57600080fd5b506101e36106c4565b6040516101f09190613783565b60405180910390f35b34801561020557600080fd5b5061020e61096e565b60405161021b91906138ca565b60405180910390f35b34801561023057600080fd5b50610239610afd565b005b34801561024757600080fd5b50610250610b11565b005b34801561025e57600080fd5b506102676112b3565b6040516102749190613b86565b60405180910390f35b34801561028957600080fd5b506102a4600480360381019061029f9190613c0d565b61165b565b6040516102b191906135a8565b60405180910390f35b3480156102c657600080fd5b506102cf611985565b6040516102dc9190613c9d565b60405180910390f35b3480156102f157600080fd5b5061030c60048036038101906103079190613398565b6119af565b005b6103286004803603810190610323919061404f565b611bf1565b60405161033591906135a8565b60405180910390f35b61035860048036038101906103539190613398565b612051565b005b34801561036657600080fd5b50610381600480360381019061037c91906140c4565b6124a8565b60405161038e9190613783565b60405180910390f35b3480156103a357600080fd5b506103be60048036038101906103b99190613398565b61275b565b005b3480156103cc57600080fd5b506103e760048036038101906103e29190613398565b6127f5565b6040516103f491906141cf565b60405180910390f35b34801561040957600080fd5b50610424600480360381019061041f91906141f1565b612936565b005b34801561043257600080fd5b5061044d60048036038101906104489190613398565b612b56565b005b34801561045b57600080fd5b50610476600480360381019061047191906140c4565b612cfd565b005b610480612d80565b60005b606a8054905081101561054b5781606a82815481106104a5576104a461423e565b5b90600052602060002090600b02016000015403610538576002606a82815481106104d2576104d161423e565b5b90600052602060002090600b020160070160156101000a81548160ff021916908360028111156105055761050461364e565b5b0217905550817fc3f451c8eba813b83ed73bf2904347fff970b9ca06227a6507f7e9cd971ff11360405160405180910390a25b80806105439061429c565b915050610483565b5050565b60606040518060400160405280601281526020017f6d727061756c393240676d61696c2e636f6d0000000000000000000000000000815250905090565b6060600073ffffffffffffffffffffffffffffffffffffffff163373ffffffffffffffffffffffffffffffffffffffff16036105fd576040517f08c379a00000000000000000000000000000000000000000000000000000000081526004016105f490614330565b60405180910390fd5b606c60003373ffffffffffffffffffffffffffffffffffffffff1673ffffffffffffffffffffffffffffffffffffffff168152602001908152602001600020805480602002602001604051908101604052809291908181526020016000905b828210156106ac578382906000526020600020906003020160405180606001604052908160008201548152602001600182015481526020016002820154815250508152602001906001019061065c565b50505050905090565b6000662386f26fc10000905090565b6106cc6132e7565b600073ffffffffffffffffffffffffffffffffffffffff163373ffffffffffffffffffffffffffffffffffffffff160361073b576040517f08c379a000000000000000000000000000000000000000000000000000000000815260040161073290614330565b60405180910390fd5b606960003373ffffffffffffffffffffffffffffffffffffffff1673ffffffffffffffffffffffffffffffffffffffff1681526020019081526020016000206040518060e00160405290816000820154815260200160018201805461079f9061437f565b80601f01602080910402602001604051908101604052809291908181526020018280546107cb9061437f565b80156108185780601f106107ed57610100808354040283529160200191610818565b820191906000526020600020905b8154815290600101906020018083116107fb57829003601f168201915b505050505081526020016002820180546108319061437f565b80601f016020809104026020016040519081016040528092919081815260200182805461085d9061437f565b80156108aa5780601f1061087f576101008083540402835291602001916108aa565b820191906000526020600020905b81548152906001019060200180831161088d57829003601f168201915b505050505081526020016003820160009054906101000a900473ffffffffffffffffffffffffffffffffffffffff1673ffffffffffffffffffffffffffffffffffffffff1673ffffffffffffffffffffffffffffffffffffffff1681526020016003820160149054906101000a900460ff16600181111561092e5761092d61364e565b5b60018111156109405761093f61364e565b5b81526020016003820160159054906101000a900460ff16151515158152602001600482015481525050905090565b6060600073ffffffffffffffffffffffffffffffffffffffff163373ffffffffffffffffffffffffffffffffffffffff16036109df576040517f08c379a00000000000000000000000000000000000000000000000000000000081526004016109d690614330565b60405180910390fd5b6068805480602002602001604051908101604052809291908181526020016000905b82821015610af4578382906000526020600020906004020160405180608001604052908160008201548152602001600182018054610a3e9061437f565b80601f0160208091040260200160405190810160405280929190818152602001828054610a6a9061437f565b8015610ab75780601f10610a8c57610100808354040283529160200191610ab7565b820191906000526020600020905b815481529060010190602001808311610a9a57829003601f168201915b505050505081526020016002820160009054906101000a900460ff1615151515815260200160038201548152505081526020019060010190610a01565b50505050905090565b610b05612d80565b610b0f6000612dfe565b565b60008060019054906101000a900460ff16159050808015610b425750600160008054906101000a900460ff1660ff16105b80610b6f5750610b5130612ec4565b158015610b6e5750600160008054906101000a900460ff1660ff16145b5b610bae576040517f08c379a0000000000000000000000000000000000000000000000000000000008152600401610ba590614422565b60405180910390fd5b60016000806101000a81548160ff021916908360ff1602179055508015610beb576001600060016101000a81548160ff0219169083151502179055505b610bf3612ee7565b610bfd6065612f40565b6040518060e00160405280610c126065612f56565b81526020016040518060400160405280600581526020017f41646d696e00000000000000000000000000000000000000000000000000000081525081526020016040518060400160405280601281526020017f6d727061756c393240676d61696c2e636f6d000000000000000000000000000081525081526020013373ffffffffffffffffffffffffffffffffffffffff16815260200160006001811115610cbd57610cbc61364e565b5b815260200160011515815260200142815250606960003373ffffffffffffffffffffffffffffffffffffffff1673ffffffffffffffffffffffffffffffffffffffff168152602001908152602001600020600082015181600001556020820151816001019081610d2d91906145ee565b506040820151816002019081610d4391906145ee565b5060608201518160030160006101000a81548173ffffffffffffffffffffffffffffffffffffffff021916908373ffffffffffffffffffffffffffffffffffffffff16021790555060808201518160030160146101000a81548160ff02191690836001811115610db657610db561364e565b5b021790555060a08201518160030160156101000a81548160ff02191690831515021790555060c08201518160040155905050610df26067612f40565b60686040518060800160405280610e096067612f56565b81526020016040518060400160405280600781526020017f4d65646963616c000000000000000000000000000000000000000000000000008152508152602001600115158152602001428152509080600181540180825580915050600190039060005260206000209060040201600090919091909150600082015181600001556020820151816001019081610e9e91906145ee565b5060408201518160020160006101000a81548160ff021916908315150217905550606082015181600301555050610ed56067612f40565b60686040518060800160405280610eec6067612f56565b81526020016040518060400160405280600381526020017f4e474f00000000000000000000000000000000000000000000000000000000008152508152602001600115158152602001428152509080600181540180825580915050600190039060005260206000209060040201600090919091909150600082015181600001556020820151816001019081610f8191906145ee565b5060408201518160020160006101000a81548160ff021916908315150217905550606082015181600301555050610fb86067612f40565b60686040518060800160405280610fcf6067612f56565b81526020016040518060400160405280600881526020017f427573696e657373000000000000000000000000000000000000000000000000815250815260200160011515815260200142815250908060018154018082558091505060019003906000526020600020906004020160009091909190915060008201518160000155602082015181600101908161106491906145ee565b5060408201518160020160006101000a81548160ff02191690831515021790555060608201518160030155505061109b6067612f40565b606860405180608001604052806110b26067612f56565b81526020016040518060400160405280600881526020017f506572736f6e616c000000000000000000000000000000000000000000000000815250815260200160011515815260200142815250908060018154018082558091505060019003906000526020600020906004020160009091909190915060008201518160000155602082015181600101908161114791906145ee565b5060408201518160020160006101000a81548160ff02191690831515021790555060608201518160030155505061117e6067612f40565b606860405180608001604052806111956067612f56565b81526020016040518060400160405280600681526020017f4f74686572730000000000000000000000000000000000000000000000000000815250815260200160011515815260200142815250908060018154018082558091505060019003906000526020600020906004020160009091909190915060008201518160000155602082015181600101908161122a91906145ee565b5060408201518160020160006101000a81548160ff02191690831515021790555060608201518160030155505080156112b05760008060016101000a81548160ff0219169083151502179055507f7f26b83ff96e1f2b6a682f133852f6798a09c465da95921460cefb384740249860016040516112a79190614708565b60405180910390a15b50565b6060600073ffffffffffffffffffffffffffffffffffffffff163373ffffffffffffffffffffffffffffffffffffffff1603611324576040517f08c379a000000000000000000000000000000000000000000000000000000000815260040161131b90614330565b60405180910390fd5b606a805480602002602001604051908101604052809291908181526020016000905b8282101561165257838290600052602060002090600b0201604051806101a0016040529081600082015481526020016001820180546113849061437f565b80601f01602080910402602001604051908101604052809291908181526020018280546113b09061437f565b80156113fd5780601f106113d2576101008083540402835291602001916113fd565b820191906000526020600020905b8154815290600101906020018083116113e057829003601f168201915b505050505081526020016002820180546114169061437f565b80601f01602080910402602001604051908101604052809291908181526020018280546114429061437f565b801561148f5780601f106114645761010080835404028352916020019161148f565b820191906000526020600020905b81548152906001019060200180831161147257829003601f168201915b505050505081526020016003820180546114a89061437f565b80601f01602080910402602001604051908101604052809291908181526020018280546114d49061437f565b80156115215780601f106114f657610100808354040283529160200191611521565b820191906000526020600020905b81548152906001019060200180831161150457829003601f168201915b505050505081526020016004820154815260200160058201548152602001600682015481526020016007820160009054906101000a900473ffffffffffffffffffffffffffffffffffffffff1673ffffffffffffffffffffffffffffffffffffffff1673ffffffffffffffffffffffffffffffffffffffff1681526020016007820160149054906101000a900460ff1660018111156115c3576115c261364e565b5b60018111156115d5576115d461364e565b5b81526020016007820160159054906101000a900460ff1660028111156115fe576115fd61364e565b5b60028111156116105761160f61364e565b5b8152602001600882015481526020016009820160009054906101000a900460ff16151515158152602001600a8201548152505081526020019060010190611346565b50505050905090565b60008073ffffffffffffffffffffffffffffffffffffffff163373ffffffffffffffffffffffffffffffffffffffff16036116cb576040517f08c379a00000000000000000000000000000000000000000000000000000000081526004016116c290614330565b60405180910390fd5b8484848460008484905011611715576040517f08c379a000000000000000000000000000000000000000000000000000000000815260040161170c9061476f565b60405180910390fd5b6000828290501161175b576040517f08c379a0000000000000000000000000000000000000000000000000000000008152600401611752906147db565b60405180910390fd5b6117656065612f40565b6040518060e0016040528061177a6065612f56565b81526020018a8a8080601f016020809104026020016040519081016040528093929190818152602001838380828437600081840152601f19601f82011690508083019250505050505050815260200188888080601f016020809104026020016040519081016040528093929190818152602001838380828437600081840152601f19601f8201169050808301925050505050505081526020013373ffffffffffffffffffffffffffffffffffffffff1681526020016001808111156118425761184161364e565b5b815260200160011515815260200142815250606960003373ffffffffffffffffffffffffffffffffffffffff1673ffffffffffffffffffffffffffffffffffffffff1681526020019081526020016000206000820151816000015560208201518160010190816118b291906145ee565b5060408201518160020190816118c891906145ee565b5060608201518160030160006101000a81548173ffffffffffffffffffffffffffffffffffffffff021916908373ffffffffffffffffffffffffffffffffffffffff16021790555060808201518160030160146101000a81548160ff0219169083600181111561193b5761193a61364e565b5b021790555060a08201518160030160156101000a81548160ff02191690831515021790555060c082015181600401559050506119776065612f56565b945050505050949350505050565b6000603360009054906101000a900473ffffffffffffffffffffffffffffffffffffffff16905090565b6119b7612d80565b8060005b606a80549050811015611a6f5781606a82815481106119dd576119dc61423e565b5b90600052602060002090600b02016000015403611a5c57606a8181548110611a0857611a0761423e565b5b90600052602060002090600b0201600601544211611a5b576040517f08c379a0000000000000000000000000000000000000000000000000000000008152600401611a5290614847565b60405180910390fd5b5b8080611a679061429c565b9150506119bb565b5060005b606a80549050811015611bec5782606a8281548110611a9557611a9461423e565b5b90600052602060002090600b02016000015403611bd9576001606a8281548110611ac257611ac161423e565b5b90600052602060002090600b020160070160146101000a81548160ff02191690836001811115611af557611af461364e565b5b0217905550606a8181548110611b0e57611b0d61423e565b5b90600052602060002090600b020160070160009054906101000a900473ffffffffffffffffffffffffffffffffffffffff1673ffffffffffffffffffffffffffffffffffffffff166108fc606a8381548110611b6d57611b6c61423e565b5b90600052602060002090600b0201600501549081150290604051600060405180830381858888f19350505050158015611baa573d6000803e3d6000fd5b50827fbdef6a2e3aa892961a2dab48272f72f2bc1c7121eb1c0ed7e4a58e081c1e4be060405160405180910390a25b8080611be49061429c565b915050611a73565b505050565b60008073ffffffffffffffffffffffffffffffffffffffff163373ffffffffffffffffffffffffffffffffffffffff1603611c61576040517f08c379a0000000000000000000000000000000000000000000000000000000008152600401611c5890614330565b60405180910390fd5b6000611c6b6106c4565b9050600180811115611c8057611c7f61364e565b5b81608001516001811115611c9757611c9661364e565b5b14611cd7576040517f08c379a0000000000000000000000000000000000000000000000000000000008152600401611cce906148b3565b60405180910390fd5b662386f26fc10000341015611d21576040517f08c379a0000000000000000000000000000000000000000000000000000000008152600401611d189061491f565b60405180910390fd5b611d2b6066612f40565b606a604051806101a00160405280611d436066612f56565b815260200185600001518152602001856020015181526020018560600151815260200185608001518152602001600081526020018560a0015181526020013373ffffffffffffffffffffffffffffffffffffffff16815260200160006001811115611db157611db061364e565b5b815260200160006002811115611dca57611dc961364e565b5b8152602001856040015181526020016001151581526020014281525090806001815401808255809150506001900390600052602060002090600b0201600090919091909150600082015181600001556020820151816001019081611e2e91906145ee565b506040820151816002019081611e4491906145ee565b506060820151816003019081611e5a91906145ee565b506080820151816004015560a0820151816005015560c0820151816006015560e08201518160070160006101000a81548173ffffffffffffffffffffffffffffffffffffffff021916908373ffffffffffffffffffffffffffffffffffffffff1602179055506101008201518160070160146101000a81548160ff02191690836001811115611eec57611eeb61364e565b5b02179055506101208201518160070160156101000a81548160ff02191690836002811115611f1d57611f1c61364e565b5b021790555061014082015181600801556101608201518160090160006101000a81548160ff02191690831515021790555061018082015181600a0155505060005b8360c001515181101561200857606b6000611f796066612f56565b815260200190815260200160002060405180602001604052808660c001518481518110611fa957611fa861423e565b5b602002602001015160000151815250908060018154018082558091505060019003906000526020600020016000909190919091506000820151816000019081611ff291906145ee565b50505080806120009061429c565b915050611f5e565b506120136066612f56565b7fbc0a5edd152fa5b886dcae82c5c109d113708653b4b9c0224549ccdf715af94e60405160405180910390a26120496066612f56565b915050919050565b600073ffffffffffffffffffffffffffffffffffffffff163373ffffffffffffffffffffffffffffffffffffffff16036120c0576040517f08c379a00000000000000000000000000000000000000000000000000000000081526004016120b790614330565b60405180910390fd5b8060005b606a805490508110156122865781606a82815481106120e6576120e561423e565b5b90600052602060002090600b0201600001540361227357600060018111156121115761211061364e565b5b606a82815481106121255761212461423e565b5b90600052602060002090600b020160070160149054906101000a900460ff1660018111156121565761215561364e565b5b14612196576040517f08c379a000000000000000000000000000000000000000000000000000000000815260040161218d9061498b565b60405180910390fd5b600160028111156121aa576121a961364e565b5b606a82815481106121be576121bd61423e565b5b90600052602060002090600b020160070160159054906101000a900460ff1660028111156121ef576121ee61364e565b5b1461222f576040517f08c379a000000000000000000000000000000000000000000000000000000000815260040161222690614a1d565b60405180910390fd5b60003411612272576040517f08c379a000000000000000000000000000000000000000000000000000000000815260040161226990614a89565b60405180910390fd5b5b808061227e9061429c565b9150506120c4565b5060005b606a805490508110156124a35782606a82815481106122ac576122ab61423e565b5b90600052602060002090600b020160000154036124905734606a82815481106122d8576122d761423e565b5b90600052602060002090600b020160050160008282546122f89190614aa9565b92505081905550606a81815481106123135761231261423e565b5b90600052602060002090600b020160040154606a82815481106123395761233861423e565b5b90600052602060002090600b0201600501541061247d576001606a82815481106123665761236561423e565b5b90600052602060002090600b020160070160146101000a81548160ff021916908360018111156123995761239861364e565b5b0217905550606a81815481106123b2576123b161423e565b5b90600052602060002090600b020160070160009054906101000a900473ffffffffffffffffffffffffffffffffffffffff1673ffffffffffffffffffffffffffffffffffffffff166108fc606a83815481106124115761241061423e565b5b90600052602060002090600b0201600401549081150290604051600060405180830381858888f1935050505015801561244e573d6000803e3d6000fd5b50827fbdef6a2e3aa892961a2dab48272f72f2bc1c7121eb1c0ed7e4a58e081c1e4be060405160405180910390a25b61248683612f64565b61248f836131c1565b5b808061249b9061429c565b91505061228a565b505050565b6124b06132e7565b6124b8612d80565b8173ffffffffffffffffffffffffffffffffffffffff168273ffffffffffffffffffffffffffffffffffffffff1614612526576040517f08c379a000000000000000000000000000000000000000000000000000000000815260040161251d90614330565b60405180910390fd5b606960008373ffffffffffffffffffffffffffffffffffffffff1673ffffffffffffffffffffffffffffffffffffffff1681526020019081526020016000206040518060e00160405290816000820154815260200160018201805461258a9061437f565b80601f01602080910402602001604051908101604052809291908181526020018280546125b69061437f565b80156126035780601f106125d857610100808354040283529160200191612603565b820191906000526020600020905b8154815290600101906020018083116125e657829003601f168201915b5050505050815260200160028201805461261c9061437f565b80601f01602080910402602001604051908101604052809291908181526020018280546126489061437f565b80156126955780601f1061266a57610100808354040283529160200191612695565b820191906000526020600020905b81548152906001019060200180831161267857829003601f168201915b505050505081526020016003820160009054906101000a900473ffffffffffffffffffffffffffffffffffffffff1673ffffffffffffffffffffffffffffffffffffffff1673ffffffffffffffffffffffffffffffffffffffff1681526020016003820160149054906101000a900460ff1660018111156127195761271861364e565b5b600181111561272b5761272a61364e565b5b81526020016003820160159054906101000a900460ff161515151581526020016004820154815250509050919050565b612763612d80565b60005b6068805490508110156127f15781606882815481106127885761278761423e565b5b906000526020600020906004020160000154036127de576000606882815481106127b5576127b461423e565b5b906000526020600020906004020160020160006101000a81548160ff0219169083151502179055505b80806127e99061429c565b915050612766565b5050565b6060600073ffffffffffffffffffffffffffffffffffffffff163373ffffffffffffffffffffffffffffffffffffffff1603612866576040517f08c379a000000000000000000000000000000000000000000000000000000000815260040161285d90614330565b60405180910390fd5b606e6000838152602001908152602001600020805480602002602001604051908101604052809291908181526020016000905b8282101561292b57838290600052602060002090600202016040518060400160405290816000820160009054906101000a900473ffffffffffffffffffffffffffffffffffffffff1673ffffffffffffffffffffffffffffffffffffffff1673ffffffffffffffffffffffffffffffffffffffff16815260200160018201548152505081526020019060010190612899565b505050509050919050565b61293e612d80565b818160008282905011612986576040517f08c379a000000000000000000000000000000000000000000000000000000000815260040161297d90614b29565b60405180910390fd5b60005b606880549050811015612a5d5782826040516020016129a9929190614b79565b60405160208183030381529060405280519060200120606882815481106129d3576129d261423e565b5b90600052602060002090600402016001016040516020016129f49190614c15565b6040516020818303038152906040528051906020012003612a4a576040517f08c379a0000000000000000000000000000000000000000000000000000000008152600401612a4190614c78565b60405180910390fd5b8080612a559061429c565b915050612989565b50612a686067612f40565b60686040518060800160405280612a7f6067612f56565b815260200186868080601f016020809104026020016040519081016040528093929190818152602001838380828437600081840152601f19601f820116905080830192505050505050508152602001600115158152602001428152509080600181540180825580915050600190039060005260206000209060040201600090919091909150600082015181600001556020820151816001019081612b2391906145ee565b5060408201518160020160006101000a81548160ff02191690831515021790555060608201518160030155505050505050565b612b5e612d80565b60005b606a80549050811015612cf95781606a8281548110612b8357612b8261423e565b5b90600052602060002090600b02016000015403612ce6576001606a8281548110612bb057612baf61423e565b5b90600052602060002090600b020160070160156101000a81548160ff02191690836002811115612be357612be261364e565b5b0217905550606d6000606a8381548110612c0057612bff61423e565b5b90600052602060002090600b020160070160009054906101000a900473ffffffffffffffffffffffffffffffffffffffff1673ffffffffffffffffffffffffffffffffffffffff1673ffffffffffffffffffffffffffffffffffffffff168152602001908152602001600020606a8281548110612c8057612c7f61423e565b5b90600052602060002090600b0201600001549080600181540180825580915050600190039060005260206000200160009091909190915055817f3aa476b7499359259e68e236e4ba85f83ff093e3b6341e6a3f6f295d9cd6887760405160405180910390a25b8080612cf19061429c565b915050612b61565b5050565b612d05612d80565b600073ffffffffffffffffffffffffffffffffffffffff168173ffffffffffffffffffffffffffffffffffffffff1603612d74576040517f08c379a0000000000000000000000000000000000000000000000000000000008152600401612d6b90614d0a565b60405180910390fd5b612d7d81612dfe565b50565b612d8861327e565b73ffffffffffffffffffffffffffffffffffffffff16612da6611985565b73ffffffffffffffffffffffffffffffffffffffff1614612dfc576040517f08c379a0000000000000000000000000000000000000000000000000000000008152600401612df390614d76565b60405180910390fd5b565b6000603360009054906101000a900473ffffffffffffffffffffffffffffffffffffffff16905081603360006101000a81548173ffffffffffffffffffffffffffffffffffffffff021916908373ffffffffffffffffffffffffffffffffffffffff1602179055508173ffffffffffffffffffffffffffffffffffffffff168173ffffffffffffffffffffffffffffffffffffffff167f8be0079c531659141344cd1fd0a4f28419497f9722a3daafe3b4186f6b6457e060405160405180910390a35050565b6000808273ffffffffffffffffffffffffffffffffffffffff163b119050919050565b600060019054906101000a900460ff16612f36576040517f08c379a0000000000000000000000000000000000000000000000000000000008152600401612f2d90614e08565b60405180910390fd5b612f3e613286565b565b6001816000016000828254019250508190555050565b600081600001549050919050565b6000805b606c60003373ffffffffffffffffffffffffffffffffffffffff1673ffffffffffffffffffffffffffffffffffffffff168152602001908152602001600020805490508110156131135782606c60003373ffffffffffffffffffffffffffffffffffffffff1673ffffffffffffffffffffffffffffffffffffffff16815260200190815260200160002082815481106130045761300361423e565b5b906000526020600020906003020160000154036131005734606c60003373ffffffffffffffffffffffffffffffffffffffff1673ffffffffffffffffffffffffffffffffffffffff168152602001908152602001600020828154811061306d5761306c61423e565b5b9060005260206000209060030201600101600082825461308d9190614aa9565b9250508190555042606c60003373ffffffffffffffffffffffffffffffffffffffff1673ffffffffffffffffffffffffffffffffffffffff16815260200190815260200160002082815481106130e6576130e561423e565b5b906000526020600020906003020160020181905550600191505b808061310b9061429c565b915050612f68565b50806131bd57606c60003373ffffffffffffffffffffffffffffffffffffffff1673ffffffffffffffffffffffffffffffffffffffff168152602001908152602001600020604051806060016040528084815260200134815260200142815250908060018154018082558091505060019003906000526020600020906003020160009091909190915060008201518160000155602082015181600101556040820151816002015550505b5050565b606e600082815260200190815260200160002060405180604001604052803373ffffffffffffffffffffffffffffffffffffffff16815260200134815250908060018154018082558091505060019003906000526020600020906002020160009091909190915060008201518160000160006101000a81548173ffffffffffffffffffffffffffffffffffffffff021916908373ffffffffffffffffffffffffffffffffffffffff16021790555060208201518160010155505050565b600033905090565b600060019054906101000a900460ff166132d5576040517f08c379a00000000000000000000000000000000000000000000000000000000081526004016132cc90614e08565b60405180910390fd5b6132e56132e061327e565b612dfe565b565b6040518060e00160405280600081526020016060815260200160608152602001600073ffffffffffffffffffffffffffffffffffffffff168152602001600060018111156133385761333761364e565b5b8152602001600015158152602001600081525090565b6000604051905090565b600080fd5b600080fd5b6000819050919050565b61337581613362565b811461338057600080fd5b50565b6000813590506133928161336c565b92915050565b6000602082840312156133ae576133ad613358565b5b60006133bc84828501613383565b91505092915050565b600081519050919050565b600082825260208201905092915050565b60005b838110156133ff5780820151818401526020810190506133e4565b60008484015250505050565b6000601f19601f8301169050919050565b6000613427826133c5565b61343181856133d0565b93506134418185602086016133e1565b61344a8161340b565b840191505092915050565b6000602082019050818103600083015261346f818461341c565b905092915050565b600081519050919050565b600082825260208201905092915050565b6000819050602082019050919050565b6134ac81613362565b82525050565b6060820160008201516134c860008501826134a3565b5060208201516134db60208501826134a3565b5060408201516134ee60408501826134a3565b50505050565b600061350083836134b2565b60608301905092915050565b6000602082019050919050565b600061352482613477565b61352e8185613482565b935061353983613493565b8060005b8381101561356a57815161355188826134f4565b975061355c8361350c565b92505060018101905061353d565b5085935050505092915050565b600060208201905081810360008301526135918184613519565b905092915050565b6135a281613362565b82525050565b60006020820190506135bd6000830184613599565b92915050565b600082825260208201905092915050565b60006135df826133c5565b6135e981856135c3565b93506135f98185602086016133e1565b6136028161340b565b840191505092915050565b600073ffffffffffffffffffffffffffffffffffffffff82169050919050565b60006136388261360d565b9050919050565b6136488161362d565b82525050565b7f4e487b7100000000000000000000000000000000000000000000000000000000600052602160045260246000fd5b6002811061368e5761368d61364e565b5b50565b600081905061369f8261367d565b919050565b60006136af82613691565b9050919050565b6136bf816136a4565b82525050565b60008115159050919050565b6136da816136c5565b82525050565b600060e0830160008301516136f860008601826134a3565b506020830151848203602086015261371082826135d4565b9150506040830151848203604086015261372a82826135d4565b915050606083015161373f606086018261363f565b50608083015161375260808601826136b6565b5060a083015161376560a08601826136d1565b5060c083015161377860c08601826134a3565b508091505092915050565b6000602082019050818103600083015261379d81846136e0565b905092915050565b600081519050919050565b600082825260208201905092915050565b6000819050602082019050919050565b60006080830160008301516137e960008601826134a3565b506020830151848203602086015261380182826135d4565b915050604083015161381660408601826136d1565b50606083015161382960608601826134a3565b508091505092915050565b600061384083836137d1565b905092915050565b6000602082019050919050565b6000613860826137a5565b61386a81856137b0565b93508360208202850161387c856137c1565b8060005b858110156138b857848403895281516138998582613834565b94506138a483613848565b925060208a01995050600181019050613880565b50829750879550505050505092915050565b600060208201905081810360008301526138e48184613855565b905092915050565b600081519050919050565b600082825260208201905092915050565b6000819050602082019050919050565b60006139238261360d565b9050919050565b61393381613918565b82525050565b6002811061394a5761394961364e565b5b50565b600081905061395b82613939565b919050565b600061396b8261394d565b9050919050565b61397b81613960565b82525050565b600381106139925761399161364e565b5b50565b60008190506139a382613981565b919050565b60006139b382613995565b9050919050565b6139c3816139a8565b82525050565b60006101a0830160008301516139e260008601826134a3565b50602083015184820360208601526139fa82826135d4565b91505060408301518482036040860152613a1482826135d4565b91505060608301518482036060860152613a2e82826135d4565b9150506080830151613a4360808601826134a3565b5060a0830151613a5660a08601826134a3565b5060c0830151613a6960c08601826134a3565b5060e0830151613a7c60e086018261392a565b50610100830151613a91610100860182613972565b50610120830151613aa66101208601826139ba565b50610140830151613abb6101408601826134a3565b50610160830151613ad06101608601826136d1565b50610180830151613ae56101808601826134a3565b508091505092915050565b6000613afc83836139c9565b905092915050565b6000602082019050919050565b6000613b1c826138ec565b613b2681856138f7565b935083602082028501613b3885613908565b8060005b85811015613b745784840389528151613b558582613af0565b9450613b6083613b04565b925060208a01995050600181019050613b3c565b50829750879550505050505092915050565b60006020820190508181036000830152613ba08184613b11565b905092915050565b600080fd5b600080fd5b600080fd5b60008083601f840112613bcd57613bcc613ba8565b5b8235905067ffffffffffffffff811115613bea57613be9613bad565b5b602083019150836001820283011115613c0657613c05613bb2565b5b9250929050565b60008060008060408587031215613c2757613c26613358565b5b600085013567ffffffffffffffff811115613c4557613c4461335d565b5b613c5187828801613bb7565b9450945050602085013567ffffffffffffffff811115613c7457613c7361335d565b5b613c8087828801613bb7565b925092505092959194509250565b613c978161362d565b82525050565b6000602082019050613cb26000830184613c8e565b92915050565b600080fd5b7f4e487b7100000000000000000000000000000000000000000000000000000000600052604160045260246000fd5b613cf58261340b565b810181811067ffffffffffffffff82111715613d1457613d13613cbd565b5b80604052505050565b6000613d2761334e565b9050613d338282613cec565b919050565b600080fd5b600080fd5b600067ffffffffffffffff821115613d5d57613d5c613cbd565b5b613d668261340b565b9050602081019050919050565b82818337600083830152505050565b6000613d95613d9084613d42565b613d1d565b905082815260208101848484011115613db157613db0613d3d565b5b613dbc848285613d73565b509392505050565b600082601f830112613dd957613dd8613ba8565b5b8135613de9848260208601613d82565b91505092915050565b600067ffffffffffffffff821115613e0d57613e0c613cbd565b5b602082029050602081019050919050565b600060208284031215613e3457613e33613cb8565b5b613e3e6020613d1d565b9050600082013567ffffffffffffffff811115613e5e57613e5d613d38565b5b613e6a84828501613dc4565b60008301525092915050565b6000613e89613e8484613df2565b613d1d565b90508083825260208201905060208402830185811115613eac57613eab613bb2565b5b835b81811015613ef357803567ffffffffffffffff811115613ed157613ed0613ba8565b5b808601613ede8982613e1e565b85526020850194505050602081019050613eae565b5050509392505050565b600082601f830112613f1257613f11613ba8565b5b8135613f22848260208601613e76565b91505092915050565b600060e08284031215613f4157613f40613cb8565b5b613f4b60e0613d1d565b9050600082013567ffffffffffffffff811115613f6b57613f6a613d38565b5b613f7784828501613dc4565b600083015250602082013567ffffffffffffffff811115613f9b57613f9a613d38565b5b613fa784828501613dc4565b6020830152506040613fbb84828501613383565b604083015250606082013567ffffffffffffffff811115613fdf57613fde613d38565b5b613feb84828501613dc4565b6060830152506080613fff84828501613383565b60808301525060a061401384828501613383565b60a08301525060c082013567ffffffffffffffff81111561403757614036613d38565b5b61404384828501613efd565b60c08301525092915050565b60006020828403121561406557614064613358565b5b600082013567ffffffffffffffff8111156140835761408261335d565b5b61408f84828501613f2b565b91505092915050565b6140a18161362d565b81146140ac57600080fd5b50565b6000813590506140be81614098565b92915050565b6000602082840312156140da576140d9613358565b5b60006140e8848285016140af565b91505092915050565b600081519050919050565b600082825260208201905092915050565b6000819050602082019050919050565b604082016000820151614133600085018261392a565b50602082015161414660208501826134a3565b50505050565b6000614158838361411d565b60408301905092915050565b6000602082019050919050565b600061417c826140f1565b61418681856140fc565b93506141918361410d565b8060005b838110156141c25781516141a9888261414c565b97506141b483614164565b925050600181019050614195565b5085935050505092915050565b600060208201905081810360008301526141e98184614171565b905092915050565b6000806020838503121561420857614207613358565b5b600083013567ffffffffffffffff8111156142265761422561335d565b5b61423285828601613bb7565b92509250509250929050565b7f4e487b7100000000000000000000000000000000000000000000000000000000600052603260045260246000fd5b7f4e487b7100000000000000000000000000000000000000000000000000000000600052601160045260246000fd5b60006142a782613362565b91507fffffffffffffffffffffffffffffffffffffffffffffffffffffffffffffffff82036142d9576142d861426d565b5b600182019050919050565b7f4e6f7420612076616c6964206164647265737321000000000000000000000000600082015250565b600061431a6014836133d0565b9150614325826142e4565b602082019050919050565b600060208201905081810360008301526143498161430d565b9050919050565b7f4e487b7100000000000000000000000000000000000000000000000000000000600052602260045260246000fd5b6000600282049050600182168061439757607f821691505b6020821081036143aa576143a9614350565b5b50919050565b7f496e697469616c697a61626c653a20636f6e747261637420697320616c72656160008201527f647920696e697469616c697a6564000000000000000000000000000000000000602082015250565b600061440c602e836133d0565b9150614417826143b0565b604082019050919050565b6000602082019050818103600083015261443b816143ff565b9050919050565b60008190508160005260206000209050919050565b60006020601f8301049050919050565b600082821b905092915050565b6000600883026144a47fffffffffffffffffffffffffffffffffffffffffffffffffffffffffffffffff82614467565b6144ae8683614467565b95508019841693508086168417925050509392505050565b6000819050919050565b60006144eb6144e66144e184613362565b6144c6565b613362565b9050919050565b6000819050919050565b614505836144d0565b614519614511826144f2565b848454614474565b825550505050565b600090565b61452e614521565b6145398184846144fc565b505050565b5b8181101561455d57614552600082614526565b60018101905061453f565b5050565b601f8211156145a25761457381614442565b61457c84614457565b8101602085101561458b578190505b61459f61459785614457565b83018261453e565b50505b505050565b600082821c905092915050565b60006145c5600019846008026145a7565b1980831691505092915050565b60006145de83836145b4565b9150826002028217905092915050565b6145f7826133c5565b67ffffffffffffffff8111156146105761460f613cbd565b5b61461a825461437f565b614625828285614561565b600060209050601f8311600181146146585760008415614646578287015190505b61465085826145d2565b8655506146b8565b601f19841661466686614442565b60005b8281101561468e57848901518255600182019150602085019450602081019050614669565b868310156146ab57848901516146a7601f8916826145b4565b8355505b6001600288020188555050505b505050505050565b6000819050919050565b600060ff82169050919050565b60006146f26146ed6146e8846146c0565b6144c6565b6146ca565b9050919050565b614702816146d7565b82525050565b600060208201905061471d60008301846146f9565b92915050565b7f4e616d6520697320726571756972656421000000000000000000000000000000600082015250565b60006147596011836133d0565b915061476482614723565b602082019050919050565b600060208201905081810360008301526147888161474c565b9050919050565b7f456d61696c206973207265717569726564210000000000000000000000000000600082015250565b60006147c56012836133d0565b91506147d08261478f565b602082019050919050565b600060208201905081810360008301526147f4816147b8565b9050919050565b7f446561646c696e65206e6f74206d657420796574210000000000000000000000600082015250565b60006148316015836133d0565b915061483c826147fb565b602082019050919050565b6000602082019050818103600083015261486081614824565b9050919050565b7f55736572206973206e6f742046756e6452616973657221000000000000000000600082015250565b600061489d6017836133d0565b91506148a882614867565b602082019050919050565b600060208201905081810360008301526148cc81614890565b9050919050565b7f566572696669636174696f6e20636f737420646f6573206e6f74206d65742100600082015250565b6000614909601f836133d0565b9150614914826148d3565b602082019050919050565b60006020820190508181036000830152614938816148fc565b9050919050565b7f43616d706169676e20726561636865642069747320676f616c21000000000000600082015250565b6000614975601a836133d0565b91506149808261493f565b602082019050919050565b600060208201905081810360008301526149a481614968565b9050919050565b7f43616d706169676e206973206e6f7420417661696c61626c6520666f7220667560008201527f6e64696e67210000000000000000000000000000000000000000000000000000602082015250565b6000614a076026836133d0565b9150614a12826149ab565b604082019050919050565b60006020820190508181036000830152614a36816149fa565b9050919050565b7f416d6f756e742072657175697265642100000000000000000000000000000000600082015250565b6000614a736010836133d0565b9150614a7e82614a3d565b602082019050919050565b60006020820190508181036000830152614aa281614a66565b9050919050565b6000614ab482613362565b9150614abf83613362565b9250828201905080821115614ad757614ad661426d565b5b92915050565b7f43617465676f7279206e616d6520697320726571756972656421000000000000600082015250565b6000614b13601a836133d0565b9150614b1e82614add565b602082019050919050565b60006020820190508181036000830152614b4281614b06565b9050919050565b600081905092915050565b6000614b608385614b49565b9350614b6d838584613d73565b82840190509392505050565b6000614b86828486614b54565b91508190509392505050565b60008154614b9f8161437f565b614ba98186614b49565b94506001821660008114614bc45760018114614bd957614c0c565b60ff1983168652811515820286019350614c0c565b614be285614442565b60005b83811015614c0457815481890152600182019150602081019050614be5565b838801955050505b50505092915050565b6000614c218284614b92565b915081905092915050565b7f43617465676f7279206e616d6520616c72656164792065786973747321000000600082015250565b6000614c62601d836133d0565b9150614c6d82614c2c565b602082019050919050565b60006020820190508181036000830152614c9181614c55565b9050919050565b7f4f776e61626c653a206e6577206f776e657220697320746865207a65726f206160008201527f6464726573730000000000000000000000000000000000000000000000000000602082015250565b6000614cf46026836133d0565b9150614cff82614c98565b604082019050919050565b60006020820190508181036000830152614d2381614ce7565b9050919050565b7f4f776e61626c653a2063616c6c6572206973206e6f7420746865206f776e6572600082015250565b6000614d606020836133d0565b9150614d6b82614d2a565b602082019050919050565b60006020820190508181036000830152614d8f81614d53565b9050919050565b7f496e697469616c697a61626c653a20636f6e7472616374206973206e6f74206960008201527f6e697469616c697a696e67000000000000000000000000000000000000000000602082015250565b6000614df2602b836133d0565b9150614dfd82614d96565b604082019050919050565b60006020820190508181036000830152614e2181614de5565b905091905056fea2646970667358221220c8ed580e3030d0e6419e7f1e2d0b904d13373c0ac7188d35e1654c550d2717f464736f6c63430008110033",
  "linkReferences": {},
  "deployedLinkReferences": {}
}